:100000000C94C0000C94E8000C94E8000C94E800F8
:100010000C94E8000C94E8000C94E8000C94E800C0
:100020000C94E8000C94E8000C940D070C948B07DA
:100030000C94E8000C94E8000C94E8000C94E800A0
:100040000C94E8000C94E8000C94E8000C94E80090
:100050000C94070A0C94E8000C94E8000C94BD0979
:100060000C94E8000C94E8000C94E8000C94E80070
:100070000C94E8000C94E8000C94E8000C94E80060
:100080000C94E8000C94E8000C94E8000C94E80050
:100090000C94E8000C94E8000C94E8000C94E80040
:1000A0000C94E8000C94E8000C94E80007060504A2
:1000B0000100080A0B0C0D090000000025002800B3
:1000C0002B002E00310000000000240027002A0031
:1000D0002D0030000404040404030405020202029B
:1000E00004030202020206060606060604040202D1
:1000F00002040404080201104080401020408040A7
:10010000800802040180402010020110801020406D
:100110004020080B00020202000009040000010256
:10012000020000052400100105240101010424023D
:10013000060524060001070581031000400904019B
:1001400000020A00000007050202400000070583C4
:10015000024000000403090412010002EF02014002
:100160004123368000010102030141726475696E0A
:100170006F204C4C43004D4944492D4400006A0A0D
:1001800011241FBECFEFDAE0DEBFCDBF22E0A6E92B
:10019000B1E001C01D92AA34B207E1F711E0A0E07E
:1001A000B1E0E2E0FEE102C005900D92A639B10790
:1001B000D9F710E0C0ECD0E004C02197FE010E9406
:1001C000070DCF3BD107C9F70E94600B0C94FF0EBF
:1001D0000C940000FC018091C001882311F13FB70D
:1001E000F89482E08093E9002091F200822F90E061
:1001F0001816190614F481E090E0882339F0289845
:1002000044E64093BF014091F1004083222339F03E
:100210002091F200211103C02BE62093E8003FBF9C
:1002200008958FEF9FEF08958093E9008091F20089
:10023000882319F08AE38093E80008954091B30180
:100240005091B4012091B1013091B201421753078E
:10025000B4F49091E8009570E1F39091E80092FD7C
:1002600019C08093F1008091B3019091B40101967F
:100270008F739927892B19F48EEF8093E800809172
:10028000B3019091B40101969093B4018093B301AE
:1002900081E0089580E00895EF92FF920F931F93FD
:1002A000CF93DF93F82E192FE62E042F81E0860FCF
:1002B000880F0E941E0183E00E941E01CF2DD12FC6
:1002C000EC0EFD2EF11CCE15DF05B9F007FF13C0B3
:1002D000FE0184910E941E01182F80E00E941E01E1
:1002E000812321968111EFCFDF91CF911F910F9143
:1002F000FF90EF9008958881EDCF81E0F5CFDF92F8
:10030000EF92FF920F931F93CF93DF93D82E8A0122
:10031000EB017B01E40EF51ECE15DF0559F0D7FE8B
:1003200012C0FE0184910E941E0121968111F4CF1A
:100330000FEF1FEFC801DF91CF911F910F91FF9039
:10034000EF90DF9008958881EECF2FB7F8948770F3
:100350008093E9009091E800892F807295FF04C096
:100360009091F20080E4891B2FBF0895615030F016
:100370002091F100FC0120830196F8CF289884E6B3
:100380008093BF0108958091A90181110DC082E081
:100390008093A50184E08093A6011092A801109299
:1003A000A70181E08093A90185EA91E008950F9368
:1003B0001F93CF93DF931F92CDB7DEB782E089837F
:1003C00042E450E062E171E080E80E947F010E9417
:1003D000C301DC0112960D911C910115110589F0E4
:1003E000D801ED91FC910280F381E02DBE016F5F99
:1003F0007F4FC801099597FD04C0F801008511855C
:10040000ECCF89810F90DF91CF911F910F910895CB
:10041000CF93DF931F92CDB7DEB76983DC01ED91F7
:10042000FC910280F381E02D41E050E0BE016F5F5E
:100430007F4F09950F90DF91CF91089583E00C9441
:10044000140183E00E94A50190E00895CF93DF930B
:100450001F92CDB7DEB7FC018485958597FD08C056
:100460002FEF3FEF358724870F90DF91CF910895CD
:10047000CE0101960E94EA00019719F4898190E06B
:10048000F3CF8FEF9FEFF0CF0F931F93CF93DF93B7
:100490001F92CDB7DEB78C01FC018485958597FF4F
:1004A0000BC0CE0101960E94EA00019771F4898188
:1004B00090E0F80195878487F801848595850F90F1
:1004C000DF91CF911F910F9108958FEF9FEFF1CFA3
:1004D000FC018485958597FD0BC09FB7F89482E059
:1004E0008093E9008091F2009FBF90E0019608950B
:1004F0009FB7F89482E08093E9008091F2009FBF5B
:1005000090E008953FB7F8948091A1019091A201E5
:10051000A091A301B091A40126B5A89B05C02F3FCF
:1005200019F00196A11DB11D3FBFBA2FA92F982F19
:100530008827BC01CD01620F711D811D911D42E014
:10054000660F771F881F991F4A95D1F708958F92DC
:100550009F92AF92BF92CF92DF92EF92FF924B01A8
:100560005C010E9482026B017C010E9482026C1974
:100570007D098E099F09683E734081059105A8F3A6
:1005800021E0821A9108A108B10888EEC80E83E024
:10059000D81EE11CF11C81149104A104B10429F7B7
:1005A000FF90EF90DF90CF90BF90AF909F908F9093
:1005B00008957F928F929F92AF92BF92CF92DF92D7
:1005C000EF92FF920F931F93CF93DF93C82E8B016F
:1005D0007A018091C001811110C08FEF9FEFDF91F0
:1005E000CF911F910F91FF90EF90DF90CF90BF9030
:1005F000AF909F908F907F9008958091B70180FF7A
:1006000005C08091E00082608093E000CE2DDF2D58
:10061000D12C8AEFB82E8C2D8770982E8C2D80725D
:10062000882E8C2D8074782E9AE3A92E209719F4A9
:10063000DD2009F452C08C2D0E94A50181110AC051
:10064000BA94BB2051F261E070E080E090E00E943B
:10065000A702ECCF8C171D0611F00CF08C2F9FB762
:10066000F8949092E9002091E80025FD02C09FBF18
:10067000DDCF282F30E0C21BD30B882029F081501A
:10068000A0F01092F100FBCFF801C7FC0AC0815026
:1006900050F041914093F100FACF44914093F10022
:1006A00031968150D0F7020F131FDD2021F0A09268
:1006B000E800D12CDCCF8091E80085FD07C0A09236
:1006C000E800DD24D394209791F2F3CF209779F6B8
:1006D000772069F2A092E800CACF5D9884E6809303
:1006E000B601C7017CCFCF93DF93EC0180910B0162
:1006F000882331F083E00E94D9021816190634F0DD
:1007000081E090E09B838A8380E090E0DF91CF914D
:10071000089590E080E0089580E008950F931F937E
:10072000CF93DF93CDB7DEB7C456D1090FB6F89497
:10073000DEBF0FBECDBFFC01DB019C919E5F9C9391
:100740009E01295F3F4F8AE5D9011D928A95E9F7FD
:1007500088E089838BE08A8322E02C8391E09D836B
:100760009E8339E0398764E06A879E879F873A8B4A
:1007700044E24B8B9C8BA0E0B1E0BE8BAD8B09E0DB
:1007800010E0188F0F8B998F3B8F6C8F2F8F98A352
:1007900053E059A387E08CA34DA39EA3B8A7AFA3B2
:1007A000A1E4B0E0BAA7A9A786E08BA74CA72DA724
:1007B0009EA79FA789AB4AAB2BAB2CAB2DAB3FAB16
:1007C00048AF59AF9AAF5BAF9CAF2DAF9EAF2196AC
:1007D0003FAF219722964FAF229723965FAF239783
:1007E00024962FAF249725966FAF259726969FAF17
:1007F000269727969FAF279728969FAF28972A96E8
:100800003FAF2A9745E02B964FAF2B972D962FAFF2
:100810002D9760E470E02F967FAF6EAF2F976396B1
:100820004FAF639785E264968FAF649765969FAFED
:10083000659766969FAF669767969FAF679768962E
:100840003FAF689769964FAF69976B962FAF6B97DD
:100850006D967FAF6EAF6D97A1964FAFA197A296A1
:100860008FAFA297A3969FAFA397A4969FAFA4978D
:10087000A5965FAFA59792819B839B879F5F9A8F79
:100880009D8F83812C968FAF2C978F5F80686A969F
:100890008FAF6A9744E650E0BE016F5F7F4F80E004
:1008A0000E947F01CC59DF4F0FB6F894DEBF0FBE18
:1008B000CDBFDF91CF911F910F910895BC01660FBD
:1008C000771F660F771F30E020E045B1F901E60F92
:1008D000F71FE75EFE4F5081452B45B92F5F3F4F15
:1008E0002430310591F7ECEAF0E0E49130917B009F
:1008F0002E2F220F220F20723F7D232B20937B006F
:10090000E770E064E0937C0020917A0020642093FB
:100910007A0020917A0026FDFCCF3091780020915A
:100920007900880F991FFC01E554FE4F23273227D9
:100930002327318320832C982D982E982F98089563
:10094000FC0101900020E9F73197AF01481B590BDA
:10095000BC0181EC91E00C947303CF93DF93FC0115
:10096000448155816081718181EC91E00E94730323
:10097000EC0187E791E00E94A0048C0F9D1FDF919E
:10098000CF9108958F929F92AF92BF920F931F9332
:10099000CF93DF93CDB7DEB7A1970FB6F894DEBF44
:1009A0000FBECDBF19A2423008F44AE08E010F5DA0
:1009B0001F4F842E912CB12CA12CA50194010E94D3
:1009C000E50CE62FB901CA01EA30F4F4E05DD80184
:1009D000EE938D01232B242B252B79F790E080E0DB
:1009E000109719F0CD010E94A004A1960FB6F894BB
:1009F000DEBF0FBECDBFDF91CF911F910F91BF9092
:100A0000AF909F908F900895E95CE1CFFC018081C9
:100A10009181009711F00C94A90D08950F931F93E5
:100A2000CF93DF93EC0188819981009759F02A8157
:100A30003B812617370730F081E0DF91CF911F917E
:100A40000F9108958B016F5F7F4F0E94320E0097C8
:100A500059F0998388831B830A832C813D81232B42
:100A600059F7FC011082E8CF80E0E7CFEF92FF92C8
:100A70000F931F93CF93DF93EC01FB01E080F18094
:100A8000E114F10411F10481158101151105A9F09A
:100A90008C819D81080F191FB801CE010E940E059F
:100AA000882399F0288139818C819D81B701820F3B
:100AB000931F0E94F80E1D830C83CE01DF91CF910E
:100AC0001F910F91FF90EF90089588819981009771
:100AD00011F00E94A90D198218821D821C821B82AE
:100AE0001A82EBCFEF92FF920F931F93CF93DF9376
:100AF000EC017B018A01BA010E940E05288139812F
:100B0000811114C02115310519F0C9010E94A90DE8
:100B1000198218821D821C821B821A82CE01DF91EB
:100B2000CF911F910F91FF90EF9008951D830C833B
:100B3000B701C9010E94F80EF1CFEF92FF920F9317
:100B40001F93CF93DF93CDB7DEB762970FB6F894BC
:100B5000DEBF0FBECDBF8C01CB01F8011182108228
:100B600013821282158214824AE09E012F5F3F4F4A
:100B70007901B9010E94790CF70101900020E9F791
:100B80003197AF014E195F09B701C8010E94720584
:100B900062960FB6F894DEBF0FBECDBFDF91CF9146
:100BA0001F910F91FF90EF9008955F926F927F9247
:100BB0008F929F92AF92BF92CF92DF92EF92FF926D
:100BC0000F931F93CF93DF93CDB7DEB72C970FB65C
:100BD000F894DEBF0FBECDBF0DE112E07BEBA72E78
:100BE00071E0B72ED12CC12CE9E07E2EFFE76F2EED
:100BF000ABE05A2E88248A94912CF80183818130AD
:100C000009F074C0C6010E945E04F501E080F18025
:100C100053E0F594E7945A95E1F7F0929701E0924A
:100C200096010E948202F801218532854385548510
:100C3000621B730B840B950B258136814781508590
:100C4000621773078407950708F450C0F0E5EF16A4
:100C5000F1040CF44BC00E948202F8016187728794
:100C600083879487FFEFEF1609F440C0F801808175
:100C700081113CC0B7017727CE0107960E949D05E0
:100C80001A8219821C821B821E821D8247E050E05C
:100C90006AE771E0CE0101960E947205BE01695FAC
:100CA0007F4FCE0101960E9436050E94AD04CE0111
:100CB00001960E940605CE0107960E940605F801DE
:100CC00091818281806979828A839B836C82809101
:100CD000140244E050E0BE016F5F7F4F8F5F0E94BF
:100CE000D902809114028F5F0E941401F801838160
:100CF000811115C0C6010E945E04F50180819181B9
:100D00002091980130919901281B390B295F3F4FA1
:100D10002F30310530F590929B0180929A010D5E43
:100D20001F4FF2E0AF0EB11CCA94CD28B1F42C963F
:100D30000FB6F894DEBF0FBECDBFDF91CF911F91EC
:100D40000F91FF90EF90DF90CF90BF90AF909F906A
:100D50008F907F906F905F900895CC24C394D12C96
:100D60004CCF9C0143E0359527954A95E1F7887F64
:100D700090939901809398017901FF24F0929B014F
:100D8000E0929A012F3F59F2F8018081813039F6C3
:100D900091818281806B59828A839B832C8380918D
:100DA000140244E050E0BE016F5F7F4F8F5F0E94EE
:100DB000D902809114028F5F0E941401B701CE0105
:100DC00007960E949D051A8219821C821B821E8230
:100DD0001D8244E050E062E871E0CE0101960E947D
:100DE0007205BE01695F7F4FCE0101960E943605F4
:100DF0000E94AD04CE0101960E940605CE01079621
:100E00000E9406058CCF84E0E7E8F1E0DB01019069
:100E10000D928A95E1F784E008951F920F920FB624
:100E20000F9211242F933F934F935F936F937F9370
:100E30008F939F93AF93BF93CF93EF93FF93C09103
:100E4000E1008091E100837F8093E100C3FF0FC048
:100E50001092E90081E08093EB001092EC0082E3B5
:100E60008093ED001092C00188E08093F000C2FFF3
:100E70001BC083E00E9414018091B601882341F0D9
:100E80008091B60181508093B601811101C05D9AB5
:100E90008091BF01882341F08091BF0181508093F0
:100EA000BF01811101C0289AC4FF23C08091E200D4
:100EB0008E7E81608093E2008091E1008F7E80933E
:100EC000E1008091B7018E7E80618093B701FF9130
:100ED000EF91CF91BF91AF919F918F917F916F9142
:100EE0005F914F913F912F910F900FBE0F901F90E8
:100EF0001895C0FFECCF8091E2008E7E80618093D8
:100F0000E2008091E1008E7E8093E1008091B70144
:100F10008E7E8160DACF1F920F920FB60F9211244E
:100F2000CF92DF92EF92FF920F931F932F933F93F5
:100F30004F935F936F937F938F939F93AF93BF93E1
:100F4000EF93FF93CF93DF93CDB7DEB76C97DEBF00
:100F5000CDBF1092E9008091E80083FF25C068E0D2
:100F6000CE0145960E94B60182EF8093E8008D89FC
:100F700087FF39C09091E80090FFFCCF982F9076C2
:100F800009F034C19E894F89588D2F89F88C9111B1
:100F900031C0803861F58091B8018093F1001092E2
:100FA000F1008EEF8093E8006C960FB6F894DEBFE8
:100FB0000FBECDBFDF91CF91FF91EF91BF91AF9168
:100FC0009F918F917F916F915F914F913F912F9161
:100FD0001F910F91FF90EF90DF90CF900F900FBE79
:100FE0000F901F9018959EEF9093E800C7CF109236
:100FF000F100D5CF913059F48111D3CF4130510553
:1010000081F68091B8018D7F8093B801CACF93306B
:1010100049F48111C6CF4130510519F68091B801CC
:101020008260F2CF953041F48091E80080FFFCCFE0
:1010300020682093E300B5CF963009F0A9C00B8D4E
:101040001C8D22E01092E9001092B4011092B301BD
:10105000F2122EC01092B2011092B1010E94D7017B
:101060001F8299E09983FA8291E09E8390EA9887A3
:101070009AEF99872091B3013091B401275F3F4FD8
:101080003C832B838D831092E9001092B40110925F
:10109000B3011093B2010093B10149E050E0BE01E9
:1010A0006F5F7F4F80E00E947F010E94D70179CF60
:1010B0001093B2010093B1010E94C301DC011296AA
:1010C0000D911C910115110509F451C1D801ED9143
:1010D000FC910480F581E02DBE016B5E7F4FC8015D
:1010E0000995009709F03EC1F80100851185EACF06
:1010F000F3E0FF120EC08F89882309F440C08230CC
:1011000061F440E866E086E791E00E944C018111BD
:1011100048CF81E28093EB0047CF813029F440E84B
:101120006BE08AE691E0F1CF833099F70E94C3012A
:10113000DC011296ED90FC908E010F5F1F4F68014D
:10114000E114F10479F0D701ED91FC910680F7816B
:10115000E02DB801C7010995080F111DF701E084C2
:10116000F184EECFD8011C92F60101900020E9F73E
:101170003197BF016C197D0940E0C601C6CF64E517
:1011800071E0FB01449150E080E80E947F0109CFAB
:10119000973009F4BECF983021F481E08093F100BC
:1011A00000CF993009F0FDCE837009F0B2CFEDE0A9
:1011B000F1E081E031E096E32191222371F0809308
:1011C000E9003093EB00DF0111972C912093EC00A4
:1011D0009093ED008F5F873079F78EE78093EA0078
:1011E0001092EA008F898093C001DBCE8B8D9C8D9D
:1011F0001092E9001092B4011092B3019093B201E1
:101200008093B101898D811192C08E899D89913A17
:1012100049F4813209F07DCF47E050E064E071E0AD
:1012200080E0B3CF913209F074CF833269F48F89B3
:10123000988DB0E0A0E08093000190930101A0930D
:101240000201B0930301ADCE803269F48091E800D1
:1012500082FFFCCF67E084E091E00E94B6018BEF53
:101260008093E8009ECE823209F09BCE8F898093D6
:101270000B01EEEFFFE7859194918B3F9C4D51F16F
:10128000E0E0F8E08091040190910501A091060151
:10129000B0910701803B9440A105B105F1F4809124
:1012A0000B0180FD1AC0EE3F8AE0F80789F587E759
:1012B00097E791838083809160008093B50188E1F6
:1012C0009BE00FB6F894A895809360000FBE9093B2
:1012D000600067CEEEEFFAE0D5CF8081918187374D
:1012E000974709F05ECEA895809160008861809351
:1012F00060008091B50180936000EE3F2AE0F20724
:1013000089F08091FE0A9091FF0A9183808349CEF3
:10131000808191818737980751F29093FF0A8093DB
:10132000FE0AC5CF1092FF0A1092FE0A3ACE0E9422
:10133000C301DC0112960D911C910115110509F4F0
:10134000E8CED801ED91FC910190F081E02DBE0135
:101350006B5E7F4FC8010995811123CEF80100858E
:101360001185EBCF181619060CF41BCED2CEF1E086
:10137000FF12BECE68E571E004CF1F920F920FB648
:101380000F9211242F933F938F939F93AF93BF930B
:1013900080919D0190919E01A0919F01B091A0012B
:1013A00030919C0123E0230F2D3758F50196A11DA4
:1013B000B11D20939C0180939D0190939E01A09369
:1013C0009F01B093A0018091A1019091A201A091F1
:1013D000A301B091A4010196A11DB11D8093A101AB
:1013E0009093A201A093A301B093A401BF91AF91E8
:1013F0009F918F913F912F910F900FBE0F901F9053
:10140000189526E8230F0296A11DB11DD2CF1F9279
:101410000F920FB60F9211242F933F934F935F9328
:101420006F937F938F939F93AF93BF93EF93FF93AC
:10143000E091B901F091BA010995FF91EF91BF9147
:10144000AF919F918F917F916F915F914F913F915C
:101450002F910F900FBE0F901F901895CF93DF9391
:1014600090E0FC01ED50FF4F24918C529F4FFC0106
:1014700084918823C9F090E0880F991FFC01EA53FA
:10148000FF4FA591B491FC01E854FF4FC591D49151
:1014900061110DC09FB7F8948C91209582238C9395
:1014A0008881282328839FBFDF91CF9108956230E0
:1014B00051F49FB7F8943C91822F809583238C93AD
:1014C000E8812E2BEFCF8FB7F894EC912E2B2C9335
:1014D0008FBFEACFCF92DF92EF92FF92CF93DF934D
:1014E0001092C4011092C30188EE93E0A0E0B0E036
:1014F0008093C5019093C601A093C701B093C80122
:101500008DE591E09093C2018093C1018FEF9FEF31
:101510009093CE018093CD0182E080931502809359
:1015200016028BE192E090931802809317021092BA
:101530001A02109219028FE691E0909312028093A2
:10154000110280E880931B0281E880931C020E94B4
:10155000C301FC01818190911502482F490F552745
:10156000551F483051059CF5A281B381109709F5AC
:1015700021E132E033832283208120931302809380
:10158000140280911602820F808320911702A22FED
:10159000B09118028A2F821B8917C8F481813D916E
:1015A000C82FD0E0C45FDE4F38838F5F8183F2CFD6
:1015B000D90118962D913C91199721153105C1F744
:1015C00021E132E019963C932E931897D5CF1092D3
:1015D000430280E18093440281E08093450260E011
:1015E00080E00E942E0A61E088E00E942E0A61E0FD
:1015F00089E00E942E0A61E08AE00E942E0A809112
:101600004402893020F061E08BE00E942E0A209194
:1016100043029091440220932A0290932C0210924C
:101620002B0280E380932D0240EA56E861E070E0EF
:101630004093260250932702609328027093290258
:1016400030E4C32E3DE0D32E33E0E32EF12CC092E4
:101650002202D0922302E0922402F09225021092FC
:101660001D0280931E0281E080931F02809320025E
:1016700020933D0290933F0280933E029AE0909324
:1016800040024093390250933A0260933B027093B8
:101690003C024093350250933602609337027093B8
:1016A000380280933002909331028093320210927C
:1016B0003302DF91CF91FF90EF90DF90CF900895AC
:1016C000789484B5826084BD84B5816084BD85B51D
:1016D000826085BD85B5816085BD80916E00816029
:1016E00080936E00109281008091810082608093CF
:1016F00081008091810081608093810080918000D1
:10170000816080938000809191008260809391003D
:101710008091910081608093910080919000816020
:10172000809390008091C10084608093C10080917B
:10173000C10082608093C1008091C100816080936C
:10174000C1008091C30081608093C3008091C0007C
:1017500082608093C0008091C20081608093C2004B
:1017600080917A00846080937A0080917A00826010
:1017700080937A0080917A00816080937A008091D2
:101780007A00806880937A001092C0011092B801AC
:101790001092B7018091D70081608093D70080EAD2
:1017A0008093D80089B5806189BD89B5826089BD83
:1017B00009B400FEFDCF61E070E080E090E00E949F
:1017C000A7028091D8008F7C80618093D80080919F
:1017D000E000807F8093E0008091E1008E7E809326
:1017E000E1008DE08093E200559A209A8FEF9FEF01
:1017F0009093CE018093CD01C0910B016AE070E01F
:1018000080E090E00E94A702CC23B1F380E18093B6
:1018100081001092800080E49FE190938700809384
:10182000860081E18093810085ED95E09093BA0177
:101830008093B90181E080936F002C982D982E98A9
:101840002F9800E010E0CBEBD1E0812C912C5401DB
:101850008CE891E00E94A0044AE0C501B4010E9416
:10186000C20482E991E00E94A0048991999123E049
:10187000959587952A95E1F76C01092E000CEE08E5
:10188000FF0897FF32C06DE281EC91E00E940802F0
:1018900066277727CB016C197D098E099F094AE0DD
:1018A0000E94C20487E791E00E94A0048A948928DC
:1018B0008A288B28A9F489E791E00E94A00487E791
:1018C00091E00E94A0046AE070E080E090E00E9455
:1018D000A7020115110509F4B6CF0E940000B3CF8D
:1018E000812C912C54018394B3CF4AE0C701B601F7
:1018F000D7CFBB274A3031F4992322F4BDE290952B
:1019000081959F4F0C94850CBB27FB015527AA2777
:10191000880F991FAA1FA41710F0A41B839550517C
:10192000B9F7A05DAA3308F0A95DA193009779F7F4
:10193000B111B1931192CB010C949E0CDC01FC010E
:10194000672F71917723E1F7329704C07C916D93F3
:1019500070836291AE17BF07C8F308952F923F922C
:101960004F925F926F927F928F929F92AF92BF92AF
:10197000CF92DF92EF92FF920F931F93CF93DF935B
:10198000CDB7DEB7CA1BDB0B0FB6F894DEBF0FBEB8
:10199000CDBF09942A88398848885F846E847D8405
:1019A0008C849B84AA84B984C884DF80EE80FD8007
:1019B0000C811B81AA81B981CE0FD11D0FB6F8947D
:1019C000DEBF0FBECDBFED010895A1E21A2EAA1B06
:1019D000BB1BFD010DC0AA1FBB1FEE1FFF1FA217DF
:1019E000B307E407F50720F0A21BB30BE40BF50BDC
:1019F000661F771F881F991F1A9469F76095709565
:101A0000809590959B01AC01BD01CF010895EE0F2B
:101A1000FF1F0590F491E02D09940F931F93CF932E
:101A2000DF938230910510F482E090E0E09148026B
:101A3000F091490230E020E0B0E0A0E0309799F466
:101A40002115310509F44AC0281B390B2430310512
:101A5000D8F58A819B816115710589F1FB0193831A
:101A60008283FE0111C04081518102811381481798
:101A70005907E0F04817590799F4109761F012964A
:101A80000C93129713961C933296CF01DF91CF914E
:101A90001F910F9108950093480210934902F4CFCB
:101AA0002115310551F04217530738F0A901DB0128
:101AB0009A01BD01DF01F801C1CFEF01F9CF909389
:101AC000490280934802CDCFFE01E20FF31F8193BC
:101AD00091932250310939832883D7CF2091460230
:101AE00030914702232B41F42091150130911601CA
:101AF0003093470220934602209113013091140144
:101B00002115310541F42DB73EB740911701509191
:101B10001801241B350BE0914602F0914702E217B1
:101B2000F307A0F42E1B3F0B2817390778F0AC0100
:101B30004E5F5F4F2417350748F04E0F5F1F5093DD
:101B4000470240934602819391939FCFF0E0E0E0FB
:101B50009CCFCF93DF930097E9F0FC01329713827B
:101B60001282A0914802B0914902ED0130E020E0DC
:101B70001097A1F420813181820F931F209146029A
:101B8000309147022817390709F061C0F0934702E6
:101B9000E0934602DF91CF910895EA01CE17DF0767
:101BA000E8F54A815B819E0141155105B1F7E901D4
:101BB000FB83EA8349915991C40FD51FEC17FD07A8
:101BC00061F4808191810296840F951FE9019983C8
:101BD0008883828193819B838A83F0E0E0E0129680
:101BE0008D919C9113970097B9F52D913C91119788
:101BF000CD010296820F931F209146023091470239
:101C00002817390739F6309751F51092490210928A
:101C10004802B0934702A0934602BCCFD383C2834D
:101C200040815181840F951FC817D90761F44E5F19
:101C30005F4F88819981480F591F518340838A8162
:101C40009B81938382832115310509F0B0CFF093F6
:101C50004902E09348029ECFFD01DC01C0CF138210
:101C60001282D7CFB0E0A0E0E8E3FEE00C94B00C25
:101C70008C01009751F4CB010E940D0D8C01C8011D
:101C8000CDB7DEB7E0E10C94CC0CFC01E60FF71FFA
:101C90009C0122503109E217F30708F49DC0D901D5
:101CA000CD91DC911197C617D70798F0C530D105B3
:101CB00030F3CE0104978617970708F3C61BD70B9E
:101CC0002297C193D1936D937C93CF010E94A90D6C
:101CD000D6CF5B01AC1ABD0A4C018C0E9D1EA091A3
:101CE0004802B0914902512C412CF12CE12C109763
:101CF00031F580914602909147028815990509F0C7
:101D00005CC04616570608F058C0809113019091A8
:101D10001401009741F48DB79EB74091170150917F
:101D20001801841B950BE817F90708F055C0F093CC
:101D30004702E0934602F90171836083A0CF8D9141
:101D40009C91119712966C90129713967C90139712
:101D5000A815B90559F56C0142E0C40ED11CCA148E
:101D6000DB0420F1AC014A195B09DA0112961597E0
:101D700080F06282738251834083D9016D937C939A
:101D8000E114F10471F0D7011396FC93EE931297CE
:101D900076CF22968C0F9D1FF90191838083F301EA
:101DA000EFCFF0934902E093480269CF48165906F5
:101DB00008F42C017D01D3019ACFCB010E940D0DB7
:101DC0007C01009749F0AE01B8010E94EF0EC801F6
:101DD0000E94A90D870153CF10E000E050CFFB0116
:101DE000DC0102C001900D9241505040D8F7089597
:101DF000FB01DC0101900D920020E1F70895F894B9
:021E0000FFCF12
:101E0200FFFFFFFF00E100000000000000C1808131
:101E120000000000004A02800000000000000000F4
:101E220010000020000000201000400000004000D0
:101E320010004020000040201080000000800000C0
:101E420010800020008000201080400000804000B0
:101E52001080402000804020100000000008027323
:101E62000321021E02680226024402000000008CC6
:101E7200038E03890303070D0A005049455A5A4F3E
:101E82002000504F5420004D4944490050696E6F64
:061E92002000203D2000AD
:00000001FF
