:100000000C94C3000C94EB000C94EB000C94EB00EC
:100010000C94EB000C94EB000C94EB000C94EB00B4
:100020000C94EB000C94EB000C9476050C94E50515
:100030000C94EB000C94EB000C94EB000C94EB0094
:100040000C94EB000C94EB000C94EB000C94EB0084
:100050000C94B9080C94EB000C94EB000C946F0812
:100060000C94EB000C943D080C9417080C94EB00D6
:100070000C94EB000C94EB000C94EB000C94EB0054
:100080000C94EB000C94EB000C94EB000C94EB0044
:100090000C94EB000C94EB000C94EB000C94EB0034
:1000A0000C94EB000C94EB000C94EB000706050499
:1000B0000100080A0B0C0D090000000025002800B3
:1000C0002B002E00310000000000240027002A0031
:1000D0002D0030000404040404030405020202029B
:1000E00004030202020206060606060604040202D1
:1000F00002040404080201104080401020408040A7
:10010000800802040180402010020110801020406D
:100110004020080B00020202000009040000010256
:10012000020000052400100105240101010424023D
:10013000060524060001070581031000400904019B
:1001400000020A00000007050202400000070583C4
:10015000024000000403090412010002EF02014002
:100160004123378000010102030141726475696E09
:100170006F204C4C430041726475696E6F204D696D
:1001800063726F001C0911241FBECFEFDAE0DEBFDF
:10019000CDBF22E0A2E6B1E001C01D92AC3CB207A7
:1001A000E1F711E0A0E0B1E0ECE9FCE102C005906C
:1001B0000D92A236B107D9F710E0C3ECD0E004C02D
:1001C0002197FE010E94540CC23CD107C9F70E943E
:1001D000130A0C944C0E0C940000FC0180919201C7
:1001E000882311F13FB7F89482E08093E9002091D1
:1001F000F200822F90E01816190614F481E090E0C6
:10020000882339F0289A44E6409391014091F10007
:100210004083222339F02091F200211103C02BE604
:100220002093E8003FBF08958FEF9FEF08952FB709
:10023000F89483E08093E9009091E800892F807220
:1002400095FF04C09091F20080E4891B2FBF0895B0
:100250008091890181110DC082E08093850184E045
:1002600080938601109288011092870181E080932B
:10027000890185E891E00895CF93DF931F92CDB770
:10028000DEB76983DC01ED91FC910280F381E02D02
:1002900041E050E0BE016F5F7F4F09950F90DF9105
:1002A000CF91089583E08093E9008091F200882344
:1002B00019F08AE38093E80008950E94170190E006
:1002C0000895CF93DF931F92CDB7DEB7FC018485ED
:1002D000958597FD08C02FEF3FEF358724870F9056
:1002E000DF91CF910895CE0101960E94ED00019714
:1002F00019F4898190E0F3CF8FEF9FEFF0CF0F9348
:100300001F93CF93DF931F92CDB7DEB78C01FC0113
:100310008485958597FF0BC0CE0101960E94ED0064
:10032000019771F4898190E0F80195878487F8013D
:10033000848595850F90DF91CF911F910F9108953E
:100340008FEF9FEFF1CFFC018485958597FD0BC062
:100350009FB7F89482E08093E9008091F2009FBFFC
:1003600090E0019608959FB7F89482E08093E900A9
:100370008091F2009FBF90E0089540917F015091DD
:10038000800120917D0130917E0142175307B4F422
:100390009091E8009570E1F39091E80092FD19C00A
:1003A0008093F10080917F019091800101968F737D
:1003B0009927892B19F48EEF8093E80080917F01B3
:1003C0009091800101969093800180937F0181E05C
:1003D000089580E00895EF92FF920F931F93CF93BB
:1003E000DF93F82E192FE62E042F81E0860F880F59
:1003F0000E94BD0183E00E94BD01CF2DD12FEC0EE4
:10040000FD2EF11CCE15DF05B9F007FF13C0FE016C
:1004100084910E94BD01182F80E00E94BD018123BC
:1004200021968111EFCFDF91CF911F910F91FF9016
:10043000EF9008958881EDCF81E0F5CFDF92EF92C4
:10044000FF920F931F93CF93DF93D82E8A01EB0176
:100450007B01E40EF51ECE15DF0559F0D7FE12C064
:10046000FE0184910E94BD0121968111F4CF0FEF0E
:100470001FEFC801DF91CF911F910F91FF90EF9077
:10048000DF9008958881EECF0F931F93CF93DF9372
:100490001F92CDB7DEB782E0898342E450E062E18B
:1004A00071E080E80E941E020E942801DC01129681
:1004B0000D911C910115110589F0D801ED91FC9168
:1004C0000280F381E02DBE016F5F7F4FC801099567
:1004D00097FD04C0F80100851185ECCF89810F904C
:1004E000DF91CF911F910F910895615030F02091CD
:1004F000F100FC0120830196F8CF289A84E68093CE
:1005000091010895AF92BF92CF92DF92EF92FF9246
:100510000F931F93CF93DF936C017B018B01040F2B
:10052000151FEB015E01AE18BF08C017D10759F0C7
:100530006991D601ED91FC910190F081E02DC60109
:100540000995892B79F7C501DF91CF911F910F9103
:10055000FF90EF90DF90CF90BF90AF900895CF9332
:10056000DF93FC01448155816081718183EE91E0CC
:100570000E948202EC0142E050E065E571E083EE0A
:1005800091E00E9482028C0F9D1FDF91CF91089510
:10059000FC01538D448D252F30E0842F90E0821B89
:1005A000930B541710F0CF96089501970895FC010E
:1005B000918D828D981761F0A28DAE0FBF2FB11D66
:1005C0005D968C91928D9F5F9F73928F90E00895BE
:1005D0008FEF9FEF0895FC01918D828D981731F078
:1005E000828DE80FF11D858D90E008958FEF9FEFCC
:1005F0000895FC01918D228D892F90E0805C9F4FA2
:10060000821B91098F739927089583EE91E00E94D0
:10061000F90221E0892B09F420E0822F089580E07F
:1006200090E0892B29F00E94050381110C940000B1
:100630000895FC01A48DA80FB92FB11DA35ABF4F77
:100640002C91848D90E001968F739927848FA689D1
:10065000B7892C93A089B1898C9182748C93938DE6
:10066000848D981306C00288F389E02D80818F7DE8
:1006700080830895EF92FF920F931F93CF93DF93A0
:10068000EC0181E0888F9B8D8C8D981319C0E889CF
:10069000F989808185FF14C09FB7F894EE89FF899E
:1006A0006083E889F9898081827480839FBF81E0BB
:1006B00090E0DF91CF911F910F91FF90EF900895FF
:1006C000F62E0B8D10E00F5F1F4F0F731127E02EDA
:1006D0008C8D8E110CC00FB607FCFACFE889F98912
:1006E000808185FFF5CFCE010E941903F1CFEB8DFC
:1006F000EC0FFD2FF11DE35AFF4FF0829FB7F894E6
:100700000B8FEA89FB8980818062CFCFCF93DF9303
:10071000EC01888D8823B9F0AA89BB89E889F98919
:100720008C9185FD03C0808186FD0DC00FB607FC4E
:10073000F7CF8C9185FFF2CF808185FFEDCFCE0181
:100740000E941903E9CFDF91CF9108953FB7F89444
:100750008091630190916401A0916501B09166015F
:1007600026B5A89B05C02F3F19F00196A11DB11D0C
:100770003FBFBA2FA92F982F8827BC01CD01620F48
:10078000711D811D911D42E0660F771F881F991F03
:100790004A95D1F70895CF92DF92EF92FF920E948F
:1007A000A6036B017C010E94A6036C197D098E09CA
:1007B0009F09683E734081059105A8F3FF90EF9073
:1007C000DF90CF9008958F929F92AF92BF92CF9279
:1007D000DF92EF92FF920F931F93CF93DF936C0101
:1007E0007B018A0180912301882309F458C08091FC
:1007F0009201882309F453C08091840180FF05C0D1
:100800008091E00082608093E000E801B12C8AEFE3
:10081000A82E93E0892E2AE3922E209711F4BB2074
:10082000B9F10E941701811106C0AA94AA20B9F15A
:100830000E94CB03F2CF8C171D0611F00CF08C2F09
:100840009FB7F8948092E9002091E80025FD02C04E
:100850009FBFE3CF282F30E0C21BD30BF70181509D
:1008600020F041914093F100FACFE20EF31EBB203D
:1008700021F09092E800B12CEBCF8091E80085FD4B
:10088000E7CF9092E800BB24B394209709F3F3CF0D
:100890005D9A84E680938301101611063CF081E096
:1008A00090E0F6019383828310E000E0C801DF91BD
:1008B000CF911F910F91FF90EF90DF90CF90BF905D
:1008C000AF909F908F900895CF93DF93CDE6D1E0C6
:1008D00030E020E0E1EBF0E085B1D901AA0FBB1FC9
:1008E000A20FB31FA050BF4F9C91892B85B985B132
:1008F00011969C911197892B85B985B112969C917F
:10090000892B85B9849140917B00982F990F990F7D
:1009100090724F7D942B90937B00877080648093BE
:100920007C0080917A00806480937A0080917A00C4
:1009300086FDFCCF909178008091790089279827D7
:100940008927899399932C982D982E9821303105D9
:1009500019F4DF91CF91089521E030E0BDCF0F93DE
:100960001F93CF93DF93EC0188819981009759F011
:100970002A813B812617370730F081E0DF91CF9144
:100980001F910F9108958B016F5F7F4F0E947F0D24
:10099000009759F0998388831B830A832C813D81BA
:1009A000232B59F7FC011082E8CF80E0E7CFEF92CC
:1009B000FF920F931F93CF93DF936115710541F45D
:1009C00080E0DF91CF911F910F91FF90EF900895FC
:1009D00041155105B1F07B01EC010C811D81040F23
:1009E000151FB8010E94AF04882351F32881398173
:1009F0008C819D81B701820F931F0E94450E1D833C
:100A00000C8381E0DECFCF93DF93EC018881998165
:100A1000009711F00E94F60C198218821D821C8228
:100A20001B821A82DF91CF910895EF92FF920F936C
:100A30001F93CF93DF93EC017B018A01BA010E94DF
:100A4000AF0481110BC0CE010E940305CE01DF91DE
:100A5000CF911F910F91FF90EF9008951D830C830C
:100A6000B701888199810E94450EF0CFEF92FF92E5
:100A70000F931F93CF93DF93CDB7DEB762970FB677
:100A8000F894DEBF0FBECDBF8C01CB01F8011182FF
:100A9000108213821282158214824AE09E012F5F17
:100AA0003F4F7901B9010E94E80BF7010190002046
:100AB000E9F73197AF014E195F09B701C8010E94EC
:100AC000150562960FB6F894DEBF0FBECDBFDF915D
:100AD000CF911F910F91FF90EF900895FC018081BD
:100AE0009181009711F00C94F60C08951F920F92CB
:100AF0000FB60F9211248F939F938091E1009091F4
:100B0000E100937F9093E10083FF0FC01092E90012
:100B100091E09093EB001092EC0092E39093ED0043
:100B20001092920198E09093F00082FF22C093E02F
:100B30009093E9009091F200992319F09AE3909331
:100B4000E80090918301992341F0909183019150A5
:100B500090938301911101C05D9890919101992327
:100B600041F090919101915090939101911101C0A8
:100B7000289884FF18C08091E2008E7E8160809367
:100B8000E2008091E1008F7E8093E10080918401FA
:100B90008E7E8061809384019F918F910F900FBE14
:100BA0000F901F90189580FFF7CF8091E2008E7E06
:100BB00080618093E2008091E1008E7E8093E1006D
:100BC000809184018E7E8160E5CF1F920F920FB6D7
:100BD0000F921124CF92DF92EF92FF920F931F9307
:100BE0002F933F934F935F936F937F938F939F9335
:100BF000AF93BF93EF93FF93CF93DF93CDB7DEB760
:100C00006C97DEBFCDBF1092E9008091E80083FFB2
:100C100025C068E0CE0145960E94750282EF809360
:100C2000E8008D8987FF39C09091E80090FFFCCFE4
:100C3000982F907609F034C19E894F89588D2F895D
:100C4000F88C911131C0803861F5809182018093D8
:100C5000F1001092F1008EEF8093E8006C960FB6D1
:100C6000F894DEBF0FBECDBFDF91CF91FF91EF9122
:100C7000BF91AF919F918F917F916F915F914F91B4
:100C80003F912F911F910F91FF90EF90DF90CF90A8
:100C90000F900FBE0F901F9018959EEF9093E80055
:100CA000C7CF1092F100D5CF913059F48111D3CF35
:100CB0004130510581F6809182018D7F80938201C0
:100CC000CACF933049F48111C6CF4130510519F68E
:100CD000809182018260F2CF953041F48091E800EA
:100CE00080FFFCCF20682093E300B5CF963009F059
:100CF000A9C00B8D1C8D22E01092E900109280019A
:100D000010927F01F2122EC010927E0110927D018E
:100D10000E9444021F8299E09983FA8291E09E83A7
:100D200090EA98879AEF998720917F01309180010E
:100D3000275F3F4F3C832B838D831092E9001092F5
:100D4000800110927F0110937E0100937D0149E0A4
:100D500050E0BE016F5F7F4F80E00E941E020E9444
:100D6000440279CF10937E0100937D010E942801F7
:100D7000DC0112960D911C910115110509F451C168
:100D8000D801ED91FC910480F581E02DBE016B5EF0
:100D90007F4FC8010995009709F03EC1F801008511
:100DA0001185EACFF3E0FF120EC08F89882309F482
:100DB00040C0823061F440E86DE086E791E00E9437
:100DC000EB01811148CF81E28093EB0047CF813066
:100DD00029F440E86BE08AE691E0F1CF833099F79F
:100DE0000E942801DC011296ED90FC908E010F5FAD
:100DF0001F4F6801E114F10479F0D701ED91FC91E6
:100E00000680F781E02DB801C7010995080F111D73
:100E1000F701E084F184EECFD8011C92F601019035
:100E20000020E9F73197BF016C197D0940E0C60148
:100E3000C6CF64E571E0FB01449150E080E80E9478
:100E40001E0209CF973009F4BECF983021F481E01B
:100E50008093F10000CF993009F0FDCE837009F046
:100E6000B2CFEBE2F1E081E031E096E32191222381
:100E700071F08093E9003093EB00DF0111972C9122
:100E80002093EC009093ED008F5F873079F78EE729
:100E90008093EA001092EA008F8980939201DBCE62
:100EA0008B8D9C8D1092E9001092800110927F0131
:100EB00090937E0180937D01898D811192C08E89EE
:100EC0009D89913A49F4813209F07DCF47E050E0A5
:100ED0006CE171E080E0B3CF913209F074CF8332DE
:100EE00069F48F89988DB0E0A0E080931801909309
:100EF0001901A0931A01B0931B01ADCE803269F4A1
:100F00008091E80082FFFCCF67E08CE191E00E94D5
:100F100075028BEF8093E8009ECE823209F09BCE63
:100F20008F8980932301EEEFFFE7859194918B3FAA
:100F30009C4D51F1E0E0F8E080911C0190911D0181
:100F4000A0911E01B0911F01803B9440A105B10505
:100F5000F1F48091230180FD1AC0EE3F8AE0F8078A
:100F600089F587E797E7918380838091600080937C
:100F7000810188E19BE00FB6F894A895809360000A
:100F80000FBE9093600067CEEEEFFAE0D5CF808180
:100F900091818737974709F05ECEA89580916000D0
:100FA0008861809360008091810180936000EE3FB2
:100FB0002AE0F20789F08091FE0A9091FF0A91835E
:100FC000808349CE808191818737980751F2909331
:100FD000FF0A8093FE0AC5CF1092FF0A1092FE0A04
:100FE0003ACE0E942801DC0112960D911C91011548
:100FF000110509F4E8CED801ED91FC910190F08142
:10100000E02DBE016B5E7F4FC8010995811123CE93
:10101000F80100851185EBCF181619060CF41BCECC
:10102000D2CEF1E0FF12BECE68E571E004CF1F9290
:101030000F920FB60F9211242F933F934F935F930C
:101040006F937F938F939F93AF93BF93EF93FF9390
:1010500083EE91E00E941903FF91EF91BF91AF9150
:101060009F918F917F916F915F914F913F912F91C0
:101070000F900FBE0F901F9018951F920F920FB6F2
:101080000F9211242F938F939F93EF93FF93E091EF
:10109000F301F091F4018081E091F901F091FA01FE
:1010A00082FD1BC090818091FC018F5F8F73209126
:1010B000FD01821741F0E091FC01F0E0ED51FE4F9F
:1010C000958F8093FC01FF91EF919F918F912F91CC
:1010D0000F900FBE0F901F9018958081F4CF1F9234
:1010E0000F920FB60F9211242F933F938F939F93DC
:1010F000AF93BF938091690190916A01A0916B01B8
:10110000B0916C013091620123E0230F2D3758F527
:101110000196A11DB11D20936201809369019093F6
:101120006A01A0936B01B0936C018091630190916F
:101130006401A0916501B09166010196A11DB11DE8
:101140008093630190936401A0936501B09366015D
:10115000BF91AF919F918F913F912F910F900FBEB3
:101160000F901F90189526E8230F0296A11DB11D20
:10117000D2CF1F920F920FB60F9211242F933F934D
:101180004F935F936F937F938F939F93AF93BF938F
:10119000EF93FF93E0916701F09168010995FF914A
:1011A000EF91BF91AF919F918F917F916F915F91DF
:1011B0004F913F912F910F900FBE0F901F90189558
:1011C000CF93DF9390E0FC01ED50FF4F24918C52C0
:1011D0009F4FFC0184918823C9F090E0880F991FEC
:1011E000FC01EA53FF4FA591B491FC01E854FF4F75
:1011F000C591D49161110DC09FB7F8948C91209541
:1012000082238C938881282328839FBFDF91CF91ED
:101210000895623051F49FB7F8943C91822F8095E5
:1012200083238C93E8812E2BEFCF8FB7F894EC912A
:101230002E2B2C938FBFEACFCF92DF92EF92FF92AB
:10124000109296011092950188EE93E0A0E0B0E034
:101250008093970190939801A0939901B0939A017C
:1012600025E331E030939401209393012FEF3FEF7A
:101270003093A00120939F011092E6011092E501A6
:101280008093E7019093E801A093E901B093EA010C
:1012900087E491E09093E4018093E3018DEC90E08A
:1012A0009093F0018093EF018CEC90E09093F20129
:1012B0008093F10188EC90E09093F4018093F30126
:1012C00089EC90E09093F6018093F5018AEC90E030
:1012D0009093F8018093F7018EEC90E09093FA01DF
:1012E0008093F9011092FC011092FD011092FE0111
:1012F0001092FF0187E18093C50288E08093C602C7
:1013000081E08093C70260E087E10E94E00861E02D
:1013100088E00E94E00861E089E00E94E00861E066
:101320008AE00E94E0088091C602893020F061E0E6
:101330008BE00E94E0082091C5029091C6022093A4
:10134000850290938702109286028AE08093880239
:1013500040ED57E060E070E04093930250939402B8
:1013600060939502709396023CE2C32EDD24D394E1
:10137000E12CF12CC0928F02D0929002E092910267
:10138000F0929202109280028093810281E0809319
:1013900082028093830220939C0290939E0280930A
:1013A0009D0230E330939F024093AA025093AB0218
:1013B0006093AC027093AD02C092A602D092A702D5
:1013C000E092A802F092A9028093970230939802CB
:1013D0008093990280939A022093B3029093B5026E
:1013E00092E09093B40297E39093B6024093C102C7
:1013F0005093C2026093C3027093C4021092BD0264
:101400001092BE021092BF021092C0028093AE02F0
:101410009093AF028093B0021092B102FF90EF90D0
:10142000DF90CF900895CF93DF93CDB7DEB72C97A1
:101430000FB6F894DEBF0FBECDBF789484B582603E
:1014400084BD84B5816084BD85B5826085BD85B568
:10145000816085BD80916E00816080936E001092E6
:101460008100809181008260809381008091810061
:1014700081608093810080918000816080938000F2
:1014800080919100826080939100809191008160B1
:101490008093910080919000816080939000809172
:1014A000C10084608093C1008091C10082608093FC
:1014B000C1008091C10081608093C1008091C30010
:1014C00081608093C3008091C00082608093C000DF
:1014D0008091C20081608093C20080917A00846014
:1014E00080937A0080917A00826080937A00809164
:1014F0007A00816080937A0080917A00806880937E
:101500007A001092920110928201109284018091CF
:10151000D70081608093D70080EA8093D80089B596
:10152000806189BD89B5826089BD09B400FEFDCFA7
:101530000E94CB038091D8008F7C80618093D8007B
:101540008091E000807F8093E0008091E1008E7EBA
:101550008093E1008DE08093E200559A209A5D9897
:101560002898E091F301F091F40182E08083E0910A
:10157000EF01F091F0011082E091F101F091F201A0
:1015800090E190831092FB01E091F701F091F80156
:1015900086E08083E091F501F091F6018081806121
:1015A0008083E091F501F091F6018081886080836D
:1015B000E091F501F091F601808180688083E091EF
:1015C000F501F091F60180818F7D808380917A0012
:1015D000876080937A00909381001092800080EC65
:1015E0009DE5909387008093860081E18093810040
:1015F00084E694E0909368018093670181E0809392
:101600006F0060E0A62E60E0B62E00E812E05DE616
:10161000C52E51E0D52EF12CE12CF80183818111EA
:1016200035C0F60180819181F801928781872385F9
:101630003485281B390B295F3F4F2F303105C0F40B
:1016400099249A94095E1F4FF2E0CF0ED11CEA94C0
:10165000EF2851F4A114B104C1F20E9405038823BC
:10166000A1F20E940000D1CFEE24E394F12CD5CF5B
:101670009C01287F3487238733E0959587953A9599
:10168000E1F7982EFFEF9F123FC0DACF8130D1F7FC
:10169000F6018081918123E0959587952A95E1F760
:1016A000F801928781878734910554F22FB7F89417
:1016B0008091690190916A01A0916B01B0916C01D8
:1016C0002FBF4389548965897689841B950BA60BA6
:1016D000B70B478550896189728984179507A607DA
:1016E000B70708F4ADCF2FB7F894809169019091B6
:1016F0006A01A0916B01B0916C012FBF838B948B19
:10170000A58BB68B99249394F801808181112DC00B
:10171000B701CE0101960E94360518861F821A86EF
:1017200019861C861B8645E050E068E571E0CE0115
:1017300007960E9415054D815E8169817A81CE01EF
:1017400007960E94D704811104C0CE0107960E941B
:101750000305CE0107960E94AF02CE0107960E94B4
:101760006E05CE0101960E946E05F80180818130E0
:1017700009F068CFB701CE0101960E9436051886A0
:101780001F821A8619861C861B8643E050E06EE590
:1017900071E0CE0107960E9415054D815E81698139
:1017A0007A81CE0107960E94D704811104C0CE0130
:1017B00007960E940305CE0107960E94AF02CE0154
:1017C00007960E946E05CE0101960E946E053ACFE3
:1017D000BB274A3031F4992322F4BDE290958195DC
:1017E0009F4F0C94F40BBB27FB015527AA27880FAA
:1017F000991FAA1FA41710F0A41B83955051B9F785
:10180000A05DAA3308F0A95DA193009779F7B11103
:10181000B1931192CB010C940D0CDC01FC01672FEC
:1018200071917723E1F7329704C07C916D937083B7
:101830006291AE17BF07C8F308952F923F924F925F
:101840005F926F927F928F929F92AF92BF92CF9250
:10185000DF92EF92FF920F931F93CF93DF93CDB759
:10186000DEB7CA1BDB0B0FB6F894DEBF0FBECDBFD1
:1018700009942A88398848885F846E847D848C84A2
:101880009B84AA84B984C884DF80EE80FD800C81AB
:101890001B81AA81B981CE0FD11D0FB6F894DEBF8E
:1018A0000FBECDBFED010895EE0FFF1F0590F4911F
:1018B000E02D09940F931F93CF93DF93823091050E
:1018C00010F482E090E0E091CA02F091CB0230E0A7
:1018D00020E0B0E0A0E0309799F42115310509F43B
:1018E0004AC0281B390B24303105D8F58A819B81E9
:1018F0006115710589F1FB0193838283FE0111C09B
:10190000408151810281138148175907E0F048173F
:10191000590799F4109761F012960C931297139649
:101920001C933296CF01DF91CF911F910F910895B3
:101930000093CA021093CB02F4CF2115310551F068
:101940004217530738F0A901DB019A01BD01DF01FD
:10195000F801C1CFEF01F9CF9093CB028093CA0277
:10196000CDCFFE01E20FF31F8193919322503109F5
:1019700039832883D7CF2091C8023091C902232B05
:1019800041F420912601309127013093C902209320
:10199000C80220912401309125012115310541F41F
:1019A0002DB73EB74091280150912901241B350BDA
:1019B000E091C802F091C902E217F307A0F42E1BD0
:1019C0003F0B2817390778F0AC014E5F5F4F2417A3
:1019D000350748F04E0F5F1F5093C9024093C8026D
:1019E000819391939FCFF0E0E0E09CCFCF93DF9382
:1019F0000097E9F0FC01329713821282A091CA028B
:101A0000B091CB02ED0130E020E01097A1F42081ED
:101A10003181820F931F2091C8023091C90228178B
:101A2000390709F061C0F093C902E093C802DF9161
:101A3000CF910895EA01CE17DF07E8F54A815B816F
:101A40009E0141155105B1F7E901FB83EA834991F4
:101A50005991C40FD51FEC17FD0761F48081918166
:101A60000296840F951FE90199838883828193816F
:101A70009B838A83F0E0E0E012968D919C9113970E
:101A80000097B9F52D913C911197CD010296820FE7
:101A9000931F2091C8023091C9022817390739F6DF
:101AA000309751F51092CB021092CA02B093C9023E
:101AB000A093C802BCCFD383C28340815181840FDD
:101AC000951FC817D90761F44E5F5F4F88819981D0
:101AD000480F591F518340838A819B81938382835E
:101AE0002115310509F0B0CFF093CB02E093CA0283
:101AF0009ECFFD01DC01C0CF13821282D7CFB0E0B0
:101B0000A0E0E5E8FDE00C941F0C8C01009751F477
:101B1000CB010E945A0C8C01C801CDB7DEB7E0E1C1
:101B20000C943B0CFC01E60FF71F9C01225031097D
:101B3000E217F30708F49DC0D901CD91DC9111970C
:101B4000C617D70798F0C530D10530F3CE010497FA
:101B50008617970708F3C61BD70B2297C193D1931B
:101B60006D937C93CF010E94F60CD6CF5B01AC1A2B
:101B7000BD0A4C018C0E9D1EA091CA02B091CB02F1
:101B8000512C412CF12CE12C109731F58091C80299
:101B90009091C9028815990509F05CC04616570650
:101BA00008F058C08091240190912501009741F4DC
:101BB0008DB79EB74091280150912901841B950B48
:101BC000E817F90708F055C0F093C902E093C8027E
:101BD000F90171836083A0CF8D919C91119712962A
:101BE0006C90129713967C901397A815B90559F528
:101BF0006C0142E0C40ED11CCA14DB0420F1AC011C
:101C00004A195B09DA011296159780F06282738295
:101C100051834083D9016D937C93E114F10471F0F9
:101C2000D7011396FC93EE93129776CF22968C0FE2
:101C30009D1FF90191838083F301EFCFF093CB02D5
:101C4000E093CA0269CF4816590608F42C017D01B9
:101C5000D3019ACFCB010E945A0C7C01009749F026
:101C6000AE01B8010E943C0EC8010E94F60C87012B
:101C700053CF10E000E050CFFB01DC0102C0019027
:101C80000D9241505040D8F70895FB01DC010190BE
:0C1C90000D920020E1F70895F894FFCFBA
:101C9C000000000000100020000020104000004058
:101CAC000010402000402010FFFFFFFF00E100006B
:101CBC00000000000000CC02800000C18081000008
:101CCC0000000000003C01E3035D015201A301612F
:101CDC00017F01000000003A038202C8028603F96A
:101CEC0002D702EB020D0A004E4F5445200043432D
:021CFC002000C6
:00000001FF
