:100000000C94D3000C94FB000C94FB000C94FB00AC
:100010000C94FB000C94FB000C94FB000C94FB0074
:100020000C94FB000C94FB000C94A2040C9411059E
:100030000C94FB000C94FB000C94FB000C94FB0054
:100040000C94FB000C94FB000C94FB000C94FB0044
:100050000C94FB000C94FB000C94FB000C949B078D
:100060000C94FB000C9469070C9443070C94FB0060
:100070000C94FB000C94FB000C94FB000C94FB0014
:100080000C94FB000C94FB000C94FB000C94FB0004
:100090000C94FB000C94FB000C94FB000C94FB00F4
:1000A0000C94FB000C94FB000C94FB00000000007F
:1000B000240027002A002D00300000000000250049
:1000C00028002B002E00310004040404040304055E
:1000D00002020202040302020202060606060606E5
:1000E00004040202020404040802011040804010CB
:1000F000204080408008020401804020100201104E
:100100008010204040200000000200090F00000382
:100110000401000C000000000000000000000000CE
:100120000000000000070605040100080A0B0C0D82
:1001300009080B000202020000090400000102028B
:100140000000052400100105240101010424020619
:100150000524060001070581031000400904010081
:10016000020A0000000705020240000007058302A2
:100170004000000403090412010002EF02014041A3
:1001800023378000010102030141726475696E6FBB
:10019000204C4C430041726475696E6F204D696359
:1001A000726F0000210811241FBECFEFDAE0DEBF1E
:1001B000CDBF11E0A0E0B1E0E2EAF6E102C00590B7
:1001C0000D92AE36B107D9F722E0AEE6B1E001C03C
:1001D0001D92A53DB207E1F710E0C3EDD0E004C0E9
:1001E0002197FE010E94490BC23DD107C9F70E9429
:1001F00018090C944F0B0C940000FC0180919C0199
:10020000882311F13FB7F89482E08093E9002091B0
:10021000F200822F90E01816190614F481E090E0A5
:10022000882339F0289A44E640939B014091F100DD
:100230004083222339F02091F200211103C02BE6E4
:100240002093E8003FBF08958FEF9FEF08952FB7E9
:10025000F89483E08093E9009091E800892F807200
:1002600095FF04C09091F20080E4891B2FBF089590
:100270008091930181110DC082E080938F0184E011
:1002800080939001109292011092910181E08093ED
:1002900093018FE891E00895CF93DF931F92CDB73C
:1002A000DEB76983DC01ED91FC910280F381E02DE2
:1002B00041E050E0BE016F5F7F4F09950F90DF91E5
:1002C000CF91089583E08093E9008091F200882324
:1002D00019F08AE38093E80008950E94270190E0D6
:1002E0000895CF93DF931F92CDB7DEB7FC018485CD
:1002F000958597FD08C02FEF3FEF358724870F9036
:10030000DF91CF910895CE0101960E94FD000197E3
:1003100019F4898190E0F3CF8FEF9FEFF0CF0F9327
:100320001F93CF93DF931F92CDB7DEB78C01FC01F3
:100330008485958597FF0BC0CE0101960E94FD0034
:10034000019771F4898190E0F80195878487F8011D
:10035000848595850F90DF91CF911F910F9108951E
:100360008FEF9FEFF1CFFC018485958597FD0BC042
:100370009FB7F89482E08093E9008091F2009FBFDC
:1003800090E0019608959FB7F89482E08093E90089
:100390008091F2009FBF90E00895409189015091B3
:1003A0008A01209187013091880142175307B4F4E4
:1003B0009091E8009570E1F39091E80092FD19C0EA
:1003C0008093F1008091890190918A0101968F7349
:1003D0009927892B19F48EEF8093E8008091890189
:1003E00090918A01019690938A018093890181E01E
:1003F000089580E00895EF92FF920F931F93CF939B
:10040000DF93F82E192FE62E042F81E0860F880F38
:100410000E94CD0183E00E94CD01CF2DD12FEC0EA3
:10042000FD2EF11CCE15DF05B9F007FF13C0FE014C
:1004300084910E94CD01182F80E00E94CD0181237C
:1004400021968111EFCFDF91CF911F910F91FF90F6
:10045000EF9008958881EDCF81E0F5CFDF92EF92A4
:10046000FF920F931F93CF93DF93D82E8A01EB0156
:100470007B01E40EF51ECE15DF0559F0D7FE12C044
:10048000FE0184910E94CD0121968111F4CF0FEFDE
:100490001FEFC801DF91CF911F910F91FF90EF9057
:1004A000DF9008958881EECF0F931F93CF93DF9352
:1004B0001F92CDB7DEB782E0898342E450E061E36A
:1004C00071E080E80E942E020E943801DC01129641
:1004D0000D911C910115110589F0D801ED91FC9148
:1004E0000280F381E02DBE016F5F7F4FC801099547
:1004F00097FD04C0F80100851185ECCF89810F902C
:10050000DF91CF911F910F910895615030F02091AC
:10051000F100FC0120830196F8CF289A84E68093AD
:100520009B010895AF92BF92CF92DF92EF92FF921C
:100530000F931F93CF93DF936C017B018B01040F0B
:10054000151FEB015E01AE18BF08C017D10759F0A7
:100550006991D601ED91FC910190F081E02DC601E9
:100560000995892B79F7C501DF91CF911F910F91E3
:10057000FF90EF90DF90CF90BF90AF900895FC0177
:10058000538D448D252F30E0842F90E0821B930BF8
:10059000541710F0CF96089501970895FC01918D9E
:1005A000828D981761F0A28DAE0FBF2FB11D5D96A1
:1005B0008C91928D9F5F9F73928F90E008958FEF43
:1005C0009FEF0895FC01918D828D981731F0828DF7
:1005D000E80FF11D858D90E008958FEF9FEF08954E
:1005E000FC01918D228D892F90E0805C9F4F821BB2
:1005F00091098F73992708958DEE91E00E94F00282
:1006000021E0892B09F420E0822F089580E090E01A
:10061000892B29F00E94FC0281110C94000008959E
:10062000FC01A48DA80FB92FB11DA35ABF4F2C9167
:10063000848D90E001968F739927848FA689B7895E
:100640002C93A089B1898C9182748C93938D848D25
:10065000981306C00288F389E02D80818F7D808306
:100660000895EF92FF920F931F93CF93DF93EC01C6
:1006700081E0888F9B8D8C8D981319C0E889F9894A
:10068000808185FF14C09FB7F894EE89FF8960834D
:10069000E889F9898081827480839FBF81E090E03E
:1006A000DF91CF911F910F91FF90EF900895F62E5B
:1006B0000B8D10E00F5F1F4F0F731127E02E8C8DF5
:1006C0008E110CC00FB607FCFACFE889F98980813A
:1006D00085FFF5CFCE010E941003F1CFEB8DEC0F1B
:1006E000FD2FF11DE35AFF4FF0829FB7F8940B8F57
:1006F000EA89FB8980818062CFCFCF93DF93EC01C1
:10070000888D8823B9F0AA89BB89E889F9898C91F9
:1007100085FD03C0808186FD0DC00FB607FCF7CFB5
:100720008C9185FFF2CF808185FFEDCFCE010E94B5
:100730001003E9CFDF91CF9108953FB7F8948091EE
:10074000730190917401A0917501B091760126B565
:10075000A89B05C02F3F19F00196A11DB11D3FBFF9
:10076000BA2FA92F982F8827BC01CD01620F711DC8
:10077000811D911D42E0660F771F881F991F4A95C2
:10078000D1F708958F929F92AF92BF92CF92DF924E
:10079000EF92FF924B015C010E949D036B017C0173
:1007A0000E949D036C197D098E099F09683E734064
:1007B00081059105A8F321E0821A9108A108B108EA
:1007C00088EEC80E83E0D81EE11CF11C8114910450
:1007D000A104B10429F7FF90EF90DF90CF90BF9074
:1007E000AF909F908F9008958F929F92AF92BF92FB
:1007F000CF92DF92EF92FF920F931F93CF93DF93ED
:100800006C017B018A0180910B01882309F45CC093
:1008100080919C01882309F457C080918E0180FF4C
:1008200005C08091E00082608093E000E801B12C77
:100830008AEFA82E93E0892E2AE3922E209711F4B6
:10084000BB20D9F10E94270181110AC0AA94AA20D5
:10085000D9F161E070E080E090E00E94C203EECF49
:100860008C171D0611F00CF08C2F9FB7F894809216
:10087000E9002091E80025FD02C09FBFDFCF282FAF
:1008800030E0C21BD30BF701815020F0419140931F
:10089000F100FACFE20EF31EBB2021F09092E800A7
:1008A000B12CEBCF8091E80085FDE7CF9092E80076
:1008B000BB24B394209709F3F3CF5D9A84E6809329
:1008C0008D01101611063CF081E090E0F601938353
:1008D000828310E000E0C801DF91CF911F910F915A
:1008E000FF90EF90DF90CF90BF90AF909F908F9050
:1008F00008952FB7F89460916F0170917001809105
:100900007101909172012FBF0895CF93DF93FC0185
:1009100001900020E9F73197AF01481B590BBC014A
:100920008DEE91E00E949202EC0142E050E065E51C
:1009300071E08DEE91E00E9492028C0F9D1FDF917D
:10094000CF9108951F920F920FB60F9211248F939B
:100950009F938091E1009091E100937F9093E1005B
:1009600083FF0FC01092E90091E09093EB0010928A
:10097000EC0092E39093ED0010929C0198E090932C
:10098000F00082FF22C093E09093E9009091F20082
:10099000992319F09AE39093E80090918D0199239F
:1009A00041F090918D01915090938D01911101C072
:1009B0005D9890919B01992341F090919B019150FA
:1009C00090939B01911101C0289884FF18C08091D9
:1009D000E2008E7E81608093E2008091E1008F7E54
:1009E0008093E10080918E018E7E806180938E01E4
:1009F0009F918F910F900FBE0F901F90189580FFC1
:100A0000F7CF8091E2008E7E80618093E20080913A
:100A1000E1008E7E8093E10080918E018E7E816068
:100A2000E5CF1F920F920FB60F921124CF92DF9253
:100A3000EF92FF920F931F932F933F934F935F93E8
:100A40006F937F938F939F93AF93BF93EF93FF9396
:100A5000CF93DF93CDB7DEB76C97DEBFCDBF1092DB
:100A6000E9008091E80083FF25C068E0CE0145964B
:100A70000E94850282EF8093E8008D8987FF39C04C
:100A80009091E80090FFFCCF982F907609F034C148
:100A90009E894F89588D2F89F88C911131C08038EB
:100AA00061F580918C018093F1001092F1008EEF3E
:100AB0008093E8006C960FB6F894DEBF0FBECDBFF2
:100AC000DF91CF91FF91EF91BF91AF919F918F9166
:100AD0007F916F915F914F913F912F911F910F9156
:100AE000FF90EF90DF90CF900F900FBE0F901F9070
:100AF00018959EEF9093E800C7CF1092F100D5CFE4
:100B0000913059F48111D3CF4130510581F6809154
:100B10008C018D7F80938C01CACF933049F4811171
:100B2000C6CF4130510519F680918C018260F2CF19
:100B3000953041F48091E80080FFFCCF206820933D
:100B4000E300B5CF963009F0A9C00B8D1C8D22E0D3
:100B50001092E90010928A0110928901F2122EC0BF
:100B600010928801109287010E9454021F8299E01E
:100B70009983FA8291E09E8390EA98879AEF998709
:100B80002091890130918A01275F3F4F3C832B835D
:100B90008D831092E90010928A01109289011093BE
:100BA00088010093870149E050E0BE016F5F7F4FED
:100BB00080E00E942E020E94540279CF1093880197
:100BC000009387010E943801DC0112960D911C915F
:100BD0000115110509F451C1D801ED91FC91048072
:100BE000F581E02DBE016B5E7F4FC801099500972E
:100BF00009F03EC1F80100851185EACFF3E0FF124C
:100C00000EC08F89882309F440C0823061F440E827
:100C10006DE085E991E00E94FB01811148CF81E2FE
:100C20008093EB0047CF813029F440E86BE089E8FE
:100C300091E0F1CF833099F70E943801DC011296E0
:100C4000ED90FC908E010F5F1F4F6801E114F104DD
:100C500079F0D701ED91FC910680F781E02DB80184
:100C6000C7010995080F111DF701E084F184EECF4B
:100C7000D8011C92F60101900020E9F73197BF01DD
:100C80006C197D0940E0C601C6CF63E771E0FB0146
:100C9000449150E080E80E942E0209CF973009F479
:100CA000BECF983021F481E08093F10000CF9930DD
:100CB00009F0FDCE837009F0B2CFEBE2F1E081E004
:100CC00031E096E32191222371F08093E900309383
:100CD000EB00DF0111972C912093EC009093ED0035
:100CE0008F5F873079F78EE78093EA001092EA00F1
:100CF0008F8980939C01DBCE8B8D9C8D1092E900B7
:100D000010928A0110928901909388018093870143
:100D1000898D811192C08E899D89913A49F48132E1
:100D200009F07DCF47E050E064E071E080E0B3CFB0
:100D3000913209F074CF833269F48F89988DB0E0D5
:100D4000A0E08093000190930101A0930201B09371
:100D50000301ADCE803269F48091E80082FFFCCFC0
:100D600067E084E091E00E9485028BEF8093E800C9
:100D70009ECE823209F09BCE8F8980930B01EEEFDD
:100D8000FFE7859194918B3F9C4D51F1E0E0F8E0B5
:100D90008091040190910501A0910601B091070195
:100DA000803B9440A105B105F1F480910B0180FDD9
:100DB0001AC0EE3F8AE0F80789F587E797E7918345
:100DC00080838091600080938B0188E19BE00FB667
:100DD000F894A895809360000FBE9093600067CE52
:100DE000EEEFFAE0D5CF808191818737974709F000
:100DF0005ECEA895809160008861809360008091AC
:100E00008B0180936000EE3F2AE0F20789F0809129
:100E1000FE0A9091FF0A9183808349CE808191815F
:100E20008737980751F29093FF0A8093FE0AC5CF47
:100E30001092FF0A1092FE0A3ACE0E943801DC019D
:100E400012960D911C910115110509F4E8CED801F7
:100E5000ED91FC910190F081E02DBE016B5E7F4F22
:100E6000C8010995811123CEF80100851185EBCFCA
:100E7000181619060CF41BCED2CEF1E0FF12BECE2E
:100E800067E771E004CF1F920F920FB60F92112403
:100E90002F933F934F935F936F937F938F939F9382
:100EA000AF93BF93EF93FF938DEE91E00E941003F9
:100EB000FF91EF91BF91AF919F918F917F916F9132
:100EC0005F914F913F912F910F900FBE0F901F9008
:100ED00018951F920F920FB60F9211242F938F9394
:100EE0009F93EF93FF93E091FD01F091FE018081CC
:100EF000E0910302F091040282FD1BC09081809179
:100F000006028F5F8F7320910702821741F0E091F4
:100F10000602F0E0E351FE4F958F80930602FF91A9
:100F2000EF919F918F912F910F900FBE0F901F9077
:100F300018958081F4CF1F920F920FB60F92112453
:100F40002F933F938F939F93AF93BF9380916F01A4
:100F500090917001A0917101B091720130916E0178
:100F600023E0230F2D3758F50196A11DB11D2093C5
:100F70006E0180936F0190937001A0937101B09303
:100F800072018091730190917401A0917501B091EB
:100F900076010196A11DB11D809373019093740198
:100FA000A0937501B0937601BF91AF919F918F91FE
:100FB0003F912F910F900FBE0F901F90189526E82C
:100FC000230F0296A11DB11DD2CFCF93DF9390E0E6
:100FD000FC01E951FF4F249188539F4FFC018491FC
:100FE0008823C9F090E0880F991FFC01E455FF4F5A
:100FF000A591B491FC01E654FF4FC591D4916111C4
:101000000DC09FB7F8948C91209582238C93888192
:10101000282328839FBFDF91CF910895623051F438
:101020009FB7F8943C91822F809583238C93E8811D
:101030002E2BEFCF8FB7F894EC912E2B2C938FBFE4
:10104000EACFCF92DF92EF92FF921092A00110921E
:101050009F0188EE93E0A0E0B0E08093A10190931F
:10106000A201A093A301B093A40125E331E0309342
:101070009E0120939D012FEF3FEF3093AA01209313
:10108000A9011092F0011092EF018093F101909369
:10109000F201A093F301B093F40187E491E09093FF
:1010A000EE018093ED018DEC90E09093FA01809336
:1010B000F9018CEC90E09093FC018093FB0188ECAB
:1010C00090E09093FE018093FD0189EC90E0909375
:1010D00000028093FF018AEC90E0909302028093DB
:1010E00001028EEC90E09093040280930302109230
:1010F000060210920702109208021092090287E17C
:101100008093D20288E08093D30281E08093D4025E
:1011100060E087E10E94E50761E088E00E94E50762
:1011200061E089E00E94E50761E08AE00E94E5074E
:101130008091D302893020F061E087E00E94E507CA
:101140004091D2023091D30240938F0230939102AA
:101150001092900290E39093920210929E0210924D
:101160009F021092A0021092A1028CE2C82EDD24F0
:10117000D394E12CF12CC0929902D0929A02E09281
:101180009B02F0929C0222E020939D0210928A0220
:1011900090938B0281E080938C0280938D02409328
:1011A000A7023093A9028093A8029093AA021092FA
:1011B000B6021092B7021092B8021092B9021092C1
:1011C000B1021092B2021092B3021092B4022093B4
:1011D000B5028093A2029093A3028093A40210927E
:1011E000A5024093BF023093C1022093C0029093A6
:1011F000C2021092CE021092CF021092D002109230
:10120000D1021092C9021092CA021092CB0210921F
:10121000CC022093CD021092BA029093BB0280932D
:10122000BC021092BD02FF90EF90DF90CF90089526
:10123000789484B5826084BD84B5816084BD85B5B1
:10124000826085BD85B5816085BD80916E008160BD
:1012500080936E0010928100809181008260809363
:101260008100809181008160809381008091800065
:1012700081608093800080919100826080939100D2
:1012800080919100816080939100809190008160B5
:10129000809390008091C10084608093C100809110
:1012A000C10082608093C1008091C1008160809301
:1012B000C1008091C30081608093C3008091C00011
:1012C00082608093C0008091C20081608093C200E0
:1012D00080917A00846080937A0080917A008260A5
:1012E00080937A0080917A00816080937A00809167
:1012F0007A00806880937A0010929C0110928C0191
:1013000010928E018091D70081608093D70080EA8F
:101310008093D80089B5806189BD89B5826089BD17
:1013200009B400FEFDCF61E070E080E090E00E9433
:10133000C2038091D8008F7C80618093D800809117
:10134000E000807F8093E0008091E1008E7E8093BA
:10135000E1008DE08093E200559A209A5D982898EC
:10136000E091FD01F091FE0182E08083E091F901BE
:10137000F091FA011082E091FB01F091FC018FECF9
:10138000808310920502E0910102F091020286E052
:101390008083E091FF01F091000280818061808371
:1013A000E091FF01F0910002808188608083E091EC
:1013B000FF01F0910002808180688083E091FF014D
:1013C000F091000280818F7D80839AE2E92E91E086
:1013D000F92E20E0C22E20E0D22E07E711E042E1F4
:1013E00051E0D801CCE0D1E030E020E08991999142
:1013F0009927FC01EA5FFE4FA490FC01E951FF4FE1
:10140000649188539F4FFC018491882309F435C06F
:10141000FA01E20FF31F7081AA20E9F0EFEFEA0D65
:10142000EF30C8F4F0E0E95EF54F0C94490B9F0AE9
:10143000A30A260A970A9B0A2B0A2B0A2B0AA60A3A
:10144000AC0AB00AB40ABA0A2B0ABE0A909180000C
:101450009F7790938000E82FF0E0EE0FFF1FE65497
:10146000FF4F85919491AFB6F894FC0171118CC037
:101470007081609567236083AFBE2F5F3F4F23303D
:10148000310509F0B3CFF701849120917B00982FAB
:10149000990F990F90722F7D922B90937B008770FC
:1014A000806480937C0080917A00806480937A00CD
:1014B00080917A0086FDFCCF909178008091790030
:1014C0008927982789278D939D934D5F5F4FF1E082
:1014D000A738BF0709F086CFCAE8D2E082E0C23D54
:1014E000D80709F4CAC08E81880F880F9F81993070
:1014F00008F44DC09BB1937C9BB99BB1892B8BB9F0
:101500008B81811155C0F801808191819A878987EB
:101510002B853C85281B390B295F3F4F2F30310528
:10152000C8F5BB24BA9468960E5F1F4FD7CF909131
:1015300080009F7D8ECF90918000977F8ACF94B559
:101540009F7794BD88CF94B59F7DFBCF90919000FD
:101550009F77909390007FCF909190009F7DF9CFDF
:1015600090919000977FF5CF9091C0009F779093D6
:10157000C00071CF9091C0009F7DF9CF9091C200C3
:10158000977F9093C20067CF7081672B74CF9BB118
:10159000937EB2CF9C01287F3C872B8733E09595C3
:1015A00087953A95E1F7B82EFFEFBF1258C0B9CF33
:1015B0008130D1F7F8018081918123E0959587955D
:1015C0002A95E1F79A8789870E9479046CE271E095
:1015D00080E090E00E94C20389859A85C3970CF44D
:1015E000A0CF8C889D88AE88BF880E9479044F84E4
:1015F000588869887A886419750986099709861652
:101600009706A806B90620F08B89823009F089CFA9
:101610000E9479048C889D88AE88BF8868197909F2
:101620008A099B096C8B7D8B8E8B9F8B0E94790422
:101630008F849888A988BA8886169706A806B9065E
:1016400040F48B898D7F81608B8B88E591E00E94CF
:10165000850482E691E00E948504BB24B3948881CE
:10166000882331F0813009F05ECF8AE691E002C034
:1016700085E691E00E94850456CFC114D10409F497
:10168000ACCE0E94FC02882309F4A7CE0E94000081
:10169000A4CEEE0FFF1F0590F491E02D0994F8946D
:0216A000FFCF7A
:1016A200FFFFFFFF00E10000000000000A00090048
:1016B200080000000000000100010000010101001B
:1016C2000001000101010001010100C1808100004F
:1016D20000000000004C01F4036D016201B30171CE
:1016E200018F010000000031039202BF027D03F06E
:1016F20002CE02E2020D0A006D75646F7520626906
:0E17020074006F6B004E4F54450043430000CF
:00000001FF
