:100000000C94C3000C94EB000C94EB000C94EB00EC
:100010000C94EB000C94EB000C94EB000C94EB00B4
:100020000C94EB000C94EB000C94BD040C942C0588
:100030000C94EB000C94EB000C94EB000C94EB0094
:100040000C94EB000C94EB000C94EB000C94EB0084
:100050000C94EB000C94EB000C94EB000C94B607A2
:100060000C94EB000C9484070C945E070C94EB004A
:100070000C94EB000C94EB000C94EB000C94EB0054
:100080000C94EB000C94EB000C94EB000C94EB0044
:100090000C94EB000C94EB000C94EB000C94EB0034
:1000A0000C94EB000C94EB000C94EB0000000000AF
:1000B000250028002B002E00310000000000240045
:1000C00027002A002D003000040404040403040562
:1000D00002020202040302020202060606060606E5
:1000E00004040202020404040802011040804010CB
:1000F000204080408008020401804020100201104E
:10010000801020404020070605040100080A0B0C5F
:100110000D09080B000202020000090400000102A0
:10012000020000052400100105240101010424023D
:10013000060524060001070581031000400904019B
:1001400000020A00000007050202400000070583C4
:10015000024000000403090412010002EF02014002
:100160004123378000010102030141726475696E09
:100170006F204C4C430041726475696E6F204D696D
:1001800063726F003C0811241FBECFEFDAE0DEBFC0
:10019000CDBF11E0A0E0B1E0E4E3F6E102C00590DC
:1001A0000D92AA34B107D9F722E0AAE4B1E001C068
:1001B0001D92A13BB207E1F710E0C3ECD0E004C010
:1001C0002197FE010E94120BC23CD107C9F70E9481
:1001D00035090C94180B0C940000FC0180917801F7
:1001E000882311F13FB7F89482E08093E9002091D1
:1001F000F200822F90E01816190614F481E090E0C6
:10020000882339F0289A44E6409377014091F10021
:100210004083222339F02091F200211103C02BE604
:100220002093E8003FBF08958FEF9FEF08952FB709
:10023000F89483E08093E9009091E800892F807220
:1002400095FF04C09091F20080E4891B2FBF0895B0
:1002500080916F0181110DC082E080936B0184E079
:1002600080936C0110926E0110926D0181E0809379
:100270006F018BE691E00895CF93DF931F92CDB786
:10028000DEB76983DC01ED91FC910280F381E02D02
:1002900041E050E0BE016F5F7F4F09950F90DF9105
:1002A000CF91089583E08093E9008091F200882344
:1002B00019F08AE38093E80008950E94170190E006
:1002C0000895CF93DF931F92CDB7DEB7FC018485ED
:1002D000958597FD08C02FEF3FEF358724870F9056
:1002E000DF91CF910895CE0101960E94ED00019714
:1002F00019F4898190E0F3CF8FEF9FEFF0CF0F9348
:100300001F93CF93DF931F92CDB7DEB78C01FC0113
:100310008485958597FF0BC0CE0101960E94ED0064
:10032000019771F4898190E0F80195878487F8013D
:10033000848595850F90DF91CF911F910F9108953E
:100340008FEF9FEFF1CFFC018485958597FD0BC062
:100350009FB7F89482E08093E9008091F2009FBFFC
:1003600090E0019608959FB7F89482E08093E900A9
:100370008091F2009FBF90E00895409165015091F7
:100380006601209163013091640142175307B4F470
:100390009091E8009570E1F39091E80092FD19C00A
:1003A0008093F100809165019091660101968F73B1
:1003B0009927892B19F48EEF8093E80080916501CD
:1003C000909166010196909366018093650181E0AA
:1003D000089580E00895EF92FF920F931F93CF93BB
:1003E000DF93F82E192FE62E042F81E0860F880F59
:1003F0000E94BD0183E00E94BD01CF2DD12FEC0EE4
:10040000FD2EF11CCE15DF05B9F007FF13C0FE016C
:1004100084910E94BD01182F80E00E94BD018123BC
:1004200021968111EFCFDF91CF911F910F91FF9016
:10043000EF9008958881EDCF81E0F5CFDF92EF92C4
:10044000FF920F931F93CF93DF93D82E8A01EB0176
:100450007B01E40EF51ECE15DF0559F0D7FE12C064
:10046000FE0184910E94BD0121968111F4CF0FEF0E
:100470001FEFC801DF91CF911F910F91FF90EF9077
:10048000DF9008958881EECF0F931F93CF93DF9372
:100490001F92CDB7DEB782E0898342E450E062E18B
:1004A00071E080E80E941E020E942801DC01129681
:1004B0000D911C910115110589F0D801ED91FC9168
:1004C0000280F381E02DBE016F5F7F4FC801099567
:1004D00097FD04C0F80100851185ECCF89810F904C
:1004E000DF91CF911F910F910895615030F02091CD
:1004F000F100FC0120830196F8CF289A84E68093CE
:1005000077010895AF92BF92CF92DF92EF92FF9260
:100510000F931F93CF93DF936C017B018B01040F2B
:10052000151FEB015E01AE18BF08C017D10759F0C7
:100530006991D601ED91FC910190F081E02DC60109
:100540000995892B79F7C501DF91CF911F910F9103
:10055000FF90EF90DF90CF90BF90AF900895FC0197
:10056000538D448D252F30E0842F90E0821B930B18
:10057000541710F0CF96089501970895FC01918DBE
:10058000828D981761F0A28DAE0FBF2FB11D5D96C1
:100590008C91928D9F5F9F73928F90E008958FEF63
:1005A0009FEF0895FC01918D828D981731F0828D17
:1005B000E80FF11D858D90E008958FEF9FEF08956E
:1005C000FC01918D228D892F90E0805C9F4F821BD2
:1005D00091098F739927089589EC91E00E94E002B8
:1005E00021E0892B09F420E0822F089580E090E03B
:1005F000892B29F00E94EC0281110C9400000895CF
:10060000FC01A48DA80FB92FB11DA35ABF4F2C9187
:10061000848D90E001968F739927848FA689B7897E
:100620002C93A089B1898C9182748C93938D848D45
:10063000981306C00288F389E02D80818F7D808326
:100640000895EF92FF920F931F93CF93DF93EC01E6
:1006500081E0888F9B8D8C8D981319C0E889F9896A
:10066000808185FF14C09FB7F894EE89FF8960836D
:10067000E889F9898081827480839FBF81E090E05E
:10068000DF91CF911F910F91FF90EF900895F62E7B
:100690000B8D10E00F5F1F4F0F731127E02E8C8D15
:1006A0008E110CC00FB607FCFACFE889F98980815A
:1006B00085FFF5CFCE010E940003F1CFEB8DEC0F4B
:1006C000FD2FF11DE35AFF4FF0829FB7F8940B8F77
:1006D000EA89FB8980818062CFCFCF93DF93EC01E1
:1006E000888D8823B9F0AA89BB89E889F9898C911A
:1006F00085FD03C0808186FD0DC00FB607FCF7CFD6
:100700008C9185FFF2CF808185FFEDCFCE010E94D5
:100710000003E9CFDF91CF9108953FB7F89480911E
:100720004B0190914C01A0914D01B0914E0126B525
:10073000A89B05C02F3F19F00196A11DB11D3FBF19
:10074000BA2FA92F982F8827BC01CD01620F711DE8
:10075000811D911D42E0660F771F881F991F4A95E2
:10076000D1F70895CF92DF92EF92FF920E948D030E
:100770006B017C010E948D036C197D098E099F0914
:10078000683E734081059105A8F3FF90EF90DF90DC
:10079000CF9008958F929F92AF92BF92CF92DF92A7
:1007A000EF92FF920F931F93CF93DF936C017B0126
:1007B0008A0180911101882309F458C08091780141
:1007C000882309F453C080916A0180FF05C080919D
:1007D000E00082608093E000E801B12C8AEFA82E4F
:1007E00093E0892E2AE3922E209711F4BB20B9F1D1
:1007F0000E941701811106C0AA94AA20B9F10E9493
:10080000B203F2CF8C171D0611F00CF08C2F9FB79E
:10081000F8948092E9002091E80025FD02C09FBF76
:10082000E3CF282F30E0C21BD30BF701815020F01B
:1008300041914093F100FACFE20EF31EBB2021F06C
:100840009092E800B12CEBCF8091E80085FDE7CFD6
:100850009092E800BB24B394209709F3F3CF5D9AFC
:1008600084E680936901101611063CF081E090E067
:10087000F6019383828310E000E0C801DF91CF91FD
:100880001F910F91FF90EF90DF90CF90BF90AF90AE
:100890009F908F900895FC0101900020E9F7319717
:1008A000AF01481B590BBC0189EC91E00C9482020A
:1008B0008F929F92AF92BF920F931F93CF93DF932C
:1008C000CDB7DEB7A1970FB6F894DEBF0FBECDBF90
:1008D00019A2423008F44AE08E010F5D1F4F842EAA
:1008E000912CB12CA12CA50194010E94F00AE62FB5
:1008F000B901CA01EA30F4F4E05DD801EE938D014C
:10090000232B242B252B79F790E080E0109719F00A
:10091000CD010E944B04A1960FB6F894DEBF0FBE26
:10092000CDBFDF91CF911F910F91BF90AF909F905E
:100930008F900895E95CE1CFCF92DF92EF92FF9222
:10094000CF93DF936B017C016DE289EC91E00E9413
:100950002103EC0166277727CB016C197D098E09ED
:100960009F094AE00E9458048C0F9D1FDF91CF9190
:10097000FF90EF90DF90CF9008951F920F920FB6E7
:100980000F9211248F939F938091E1009091E10049
:10099000937F9093E10083FF0FC01092E90091E0F4
:1009A0009093EB001092EC0092E39093ED00109284
:1009B000780198E09093F00082FF22C093E090933A
:1009C000E9009091F200992319F09AE39093E800DE
:1009D00090916901992341F0909169019150909310
:1009E0006901911101C05D9890917701992341F0BF
:1009F00090917701915090937701911101C02898BF
:100A000084FF18C08091E2008E7E81608093E200B6
:100A10008091E1008F7E8093E10080916A018E7E5B
:100A2000806180936A019F918F910F900FBE0F900C
:100A30001F90189580FFF7CF8091E2008E7E806135
:100A40008093E2008091E1008E7E8093E1008091AE
:100A50006A018E7E8160E5CF1F920F920FB60F92D2
:100A60001124CF92DF92EF92FF920F931F932F9357
:100A70003F934F935F936F937F938F939F93AF9326
:100A8000BF93EF93FF93CF93DF93CDB7DEB76C9710
:100A9000DEBFCDBF1092E9008091E80083FF25C042
:100AA00068E0CE0145960E94750282EF8093E800CF
:100AB0008D8987FF39C09091E80090FFFCCF982F77
:100AC000907609F034C19E894F89588D2F89F88C12
:100AD000911131C0803861F5809168018093F100F7
:100AE0001092F1008EEF8093E8006C960FB6F894A8
:100AF000DEBF0FBECDBFDF91CF91FF91EF91BF91D0
:100B0000AF919F918F917F916F915F914F913F91A5
:100B10002F911F910F91FF90EF90DF90CF900F904A
:100B20000FBE0F901F9018959EEF9093E800C7CFCF
:100B30001092F100D5CF913059F48111D3CF4130CB
:100B4000510581F6809168018D7F80936801CACF3D
:100B5000933049F48111C6CF4130510519F6809187
:100B600068018260F2CF953041F48091E80080FF07
:100B7000FCCF20682093E300B5CF963009F0A9C0E0
:100B80000B8D1C8D22E01092E900109266011092EC
:100B90006501F2122EC010926401109263010E944E
:100BA00044021F8299E09983FA8291E09E8390EA41
:100BB00098879AEF99872091650130916601275FA8
:100BC0003F4F3C832B838D831092E9001092660186
:100BD00010926501109364010093630149E050E0B5
:100BE000BE016F5F7F4F80E00E941E020E944402A0
:100BF00079CF10936401009363010E942801DC0106
:100C000012960D911C910115110509F451C1D801DD
:100C1000ED91FC910480F581E02DBE016B5E7F4F6C
:100C2000C8010995009709F03EC1F80100851185BA
:100C3000EACFF3E0FF120EC08F89882309F440C089
:100C4000823061F440E86DE086E791E00E94EB01BC
:100C5000811148CF81E28093EB0047CF813029F4A6
:100C600040E86BE08AE691E0F1CF833099F70E948B
:100C70002801DC011296ED90FC908E010F5F1F4F52
:100C80006801E114F10479F0D701ED91FC9106803F
:100C9000F781E02DB801C7010995080F111DF70173
:100CA000E084F184EECFD8011C92F601019000207F
:100CB000E9F73197BF016C197D0940E0C601C6CF45
:100CC00064E571E0FB01449150E080E80E941E025F
:100CD00009CF973009F4BECF983021F481E080939A
:100CE000F10000CF993009F0FDCE837009F0B2CF4A
:100CF000E3E1F1E081E031E096E32191222371F01C
:100D00008093E9003093EB00DF0111972C91209341
:100D1000EC009093ED008F5F873079F78EE780933A
:100D2000EA001092EA008F8980937801DBCE8B8DE8
:100D30009C8D1092E90010926601109265019093CB
:100D4000640180936301898D811192C08E899D8990
:100D5000913A49F4813209F07DCF47E050E06AE0F2
:100D600071E080E0B3CF913209F074CF833269F43F
:100D70008F89988DB0E0A0E08093060190930701E1
:100D8000A0930801B0930901ADCE803269F480913F
:100D9000E80082FFFCCF67E08AE091E00E947502E4
:100DA0008BEF8093E8009ECE823209F09BCE8F8934
:100DB00080931101EEEFFFE7859194918B3F9C4D5D
:100DC00051F1E0E0F8E080910A0190910B01A091CF
:100DD0000C01B0910D01803B9440A105B105F1F4E7
:100DE0008091110180FD1AC0EE3F8AE0F80789F575
:100DF00087E797E791838083809160008093670104
:100E000088E19BE00FB6F894A895809360000FBE30
:100E10009093600067CEEEEFFAE0D5CF80819181AC
:100E20008737974709F05ECEA8958091600088616A
:100E3000809360008091670180936000EE3F2AE01C
:100E4000F20789F08091FE0A9091FF0A91838083D6
:100E500049CE808191818737980751F29093FF0A9C
:100E60008093FE0AC5CF1092FF0A1092FE0A3ACE76
:100E70000E942801DC0112960D911C9101151105AB
:100E800009F4E8CED801ED91FC910190F081E02DBC
:100E9000BE016B5E7F4FC8010995811123CEF80119
:100EA00000851185EBCF181619060CF41BCED2CE97
:100EB000F1E0FF12BECE68E571E004CF1F920F9201
:100EC0000FB60F9211242F933F934F935F936F931D
:100ED0007F938F939F93AF93BF93EF93FF9389EC8F
:100EE00091E00E940003FF91EF91BF91AF919F911C
:100EF0008F917F916F915F914F913F912F910F90C3
:100F00000FBE0F901F9018951F920F920FB60F9261
:100F100011242F938F939F93EF93FF93E091D90127
:100F2000F091DA018081E091DF01F091E00182FD32
:100F30001BC090818091E2018F5F8F732091E3014C
:100F4000821741F0E091E201F0E0E753FE4F958F08
:100F50008093E201FF91EF919F918F912F910F90DC
:100F60000FBE0F901F9018958081F4CF1F920F92A3
:100F70000FB60F9211242F933F938F939F93AF93AC
:100F8000BF9380914F0190915001A0915101B09178
:100F9000520130914A0123E0230F2D3758F5019675
:100FA000A11DB11D20934A0180934F0190935001E0
:100FB000A0935101B093520180914B0190914C014B
:100FC000A0914D01B0914E010196A11DB11D8093DC
:100FD0004B0190934C01A0934D01B0934E01BF91F2
:100FE000AF919F918F913F912F910F900FBE0F90D6
:100FF0001F90189526E8230F0296A11DB11DD2CF90
:10100000CF93DF9390E0FC01E951FF4F2491885387
:101010009F4FFC0184918823C9F090E0880F991FAD
:10102000FC01E654FF4FA591B491FC01E455FF4F3C
:10103000C591D49161110DC09FB7F8948C91209502
:1010400082238C938881282328839FBFDF91CF91AF
:101050000895623051F49FB7F8943C91822F8095A7
:1010600083238C93E8812E2BEFCF8FB7F894EC91EC
:101070002E2B2C938FBFEACFCF92DF92EF92FF926D
:1010800010927C0110927B0188EE93E0A0E0B0E02A
:1010900080937D0190937E01A0937F01B0938001A6
:1010A0002DE131E030937A01209379012FEF3FEF6A
:1010B00030938601209385011092CC011092CB01D0
:1010C0008093CD019093CE01A093CF01B093D00136
:1010D0008FE291E09093CA018093C9018DEC90E07A
:1010E0009093D6018093D5018CEC90E09093D80139
:1010F0008093D70188EC90E09093DA018093D90136
:1011000089EC90E09093DC018093DB018AEC90E025
:101110009093DE018093DD018EEC90E09093E001EE
:101120008093DF011092E2011092E3011092E4013A
:101130001092E50187E18093AE0288E08093AF02D0
:1011400081E08093B00260E087E10E94000861E0E6
:1011500088E00E94000861E089E00E94000861E0E8
:101160008AE00E9400088091AF02893020F061E09F
:101170008BE00E9400083091AE022091AF023093C4
:101180006B0220936D0210926C028AE080936E02D3
:1011900010927A0210927B0210927C0210927D02D1
:1011A0009CE2C92EDD24D394E12CF12CC09275026F
:1011B000D0927602E0927702F092780292E09093D9
:1011C0007902109266028093670281E08093680240
:1011D0008093690230938302209385028093840276
:1011E00040E3409386021092920210929302109272
:1011F000940210929502C0928D02D0928E02E092DB
:101200008F02F09290029093910280937E0240931D
:101210007F02809380028093810230939B0220930F
:101220009D0290939C0227E320939E021092AA02B3
:101230001092AB021092AC021092AD021092A50275
:101240001092A6021092A7021092A8029093A902EF
:1012500080939602209397028093980210929902AD
:10126000FF90EF90DF90CF900895789484B58260DE
:1012700084BD84B5816084BD85B5826085BD85B53A
:10128000816085BD80916E00816080936E001092B8
:101290008100809181008260809381008091810033
:1012A00081608093810080918000816080938000C4
:1012B0008091910082608093910080919100816083
:1012C0008093910080919000816080939000809144
:1012D000C10084608093C1008091C10082608093CE
:1012E000C1008091C10081608093C1008091C300E2
:1012F00081608093C3008091C00082608093C000B1
:101300008091C20081608093C20080917A008460E5
:1013100080937A0080917A00826080937A00809135
:101320007A00816080937A0080917A00806880934F
:101330007A00109278011092680110926A018091EF
:10134000D70081608093D70080EA8093D80089B568
:10135000806189BD89B5826089BD09B400FEFDCF79
:101360000E94B2038091D8008F7C80618093D80066
:101370008091E000807F8093E0008091E1008E7E8C
:101380008093E1008DE08093E200559A209A5D9869
:101390002898E091D901F091DA0182E08083E09110
:1013A000D501F091D6011082E091D701F091D801DA
:1013B0008FEC80831092E101E091DD01F091DE017C
:1013C00086E08083E091DB01F091DC018081806127
:1013D0008083E091DB01F091DC0180818860808373
:1013E000E091DB01F091DC01808180688083E091F5
:1013F000DB01F091DC0180818F7D80835BE0E52E55
:1014000051E0F52E60E0C62E60E0D62E03E511E037
:10141000D80130E020E085B1F901EE0FFF1FE20FA7
:10142000F31FE050FF4F9081892B85B995B18181E1
:10143000892B85B985B19281892B85B9F701849172
:1014400040917B00982F990F990F90724F7D942BAC
:1014500090937B008770806480937C0080917A00F9
:10146000806480937A0080917A0086FDFCCF909111
:101470007800809179008927982789278D939D93FB
:101480002C982D982E982130310509F03EC0C6E6E3
:10149000D2E0812C912C54018E81880F880F9F817E
:1014A0009930B0F19BB1937C9BB99BB1892B8BB9DF
:1014B0008B8181113EC0F801808191819A87898753
:1014C0002B853C85281B390B295F3F4F2F30310579
:1014D00010F577247A9468968FEF881A980AA80AEC
:1014E000B80A0E5F1F4FE3E08E169104A104B10409
:1014F00099F6C114D10409F489CF0E94EC02882323
:1015000009F484CF0E94000081CF21E030E083CF36
:101510009BB1937EC9CF9C01287F3C872B8733E00A
:10152000959587953A95E1F7782EFFEF7F1241C0A8
:10153000D0CF8130D1F7F8018081918123E095955A
:1015400087952A95E1F7873491051CF49A87898756
:10155000C0CF1A8619862FB7F89480914F019091C9
:101560005001A0915101B09152012FBF4F85588970
:1015700069897A89841B950BA60BB70B4C895D8909
:101580006E897F8984179507A607B70708F4A1CF4E
:101590002FB7F89480914F0190915001A091510183
:1015A000B09152012FBF8C8B9D8BAE8BBF8B77245C
:1015B00073948881882331F0813009F08CCF86E4E0
:1015C00091E002C08DE391E00E944B044AE0C50126
:1015D000B4010E94580483E491E00E944B047BCF45
:1015E000A1E21A2EAA1BBB1BFD010DC0AA1FBB1F27
:1015F000EE1FFF1FA217B307E407F50720F0A21B99
:10160000B30BE40BF50B661F771F881F991F1A9405
:1016100069F760957095809590959B01AC01BD012F
:10162000CF010895EE0FFF1F0590F491E02D09946E
:04163000F894FFCF5C
:10163400000000000010FFFFFFFF00E100000000B9
:10164400000000C18081000000000000003C01CACD
:10165400035D015201A30161017F0100000000212B
:10166400038202AF026D03E002BE02D2024E4F5467
:0A1674004520000D0A00434320004A
:00000001FF
