:100000000C94D3000C94FB000C94FB000C94FB00AC
:100010000C94FB000C94FB000C94FB000C94FB0074
:100020000C94FB000C94FB000C9438050C94A70571
:100030000C94FB000C94FB000C94FB000C94FB0054
:100040000C94FB000C94FB000C94FB000C94FB0044
:100050000C94FB000C94FB000C94FB000C943108F6
:100060000C94FB000C94FF070C94D9070C94FB0034
:100070000C94FB000C94FB000C94FB000C94FB0014
:100080000C94FB000C94FB000C94FB000C94FB0004
:100090000C94FB000C94FB000C94FB000C94FB00F4
:1000A0000C94FB000C94FB000C94FB000706050469
:1000B0000100080A0B0C0D090000000024002700B5
:1000C0002A002D00300000000000250028002B0031
:1000D0002E00310004040404040304050202020299
:1000E00004030202020206060606060604040202D1
:1000F00002040404080201104080401020408040A7
:10010000800802040180402010020110801020406D
:1001100040200000000200090F0000030401000C51
:1001200000000000000000000000000000000000CF
:1001300000080B0002020200000904000001020294
:100140000000052400100105240101010424020619
:100150000524060001070581031000400904010081
:10016000020A0000000705020240000007058302A2
:100170004000000403090412010002EF02014041A3
:1001800023378000010102030141726475696E6FBB
:10019000204C4C430041726475696E6F204D696359
:1001A000726F00007B0811241FBECFEFDAE0DEBFC4
:1001B000CDBF11E0A0E0B1E0E6EBF7E102C00590B1
:1001C0000D92AA36B107D9F722E0AAE6B1E001C044
:1001D0001D92AF3AB207E1F710E0C3EDD0E004C0E2
:1001E0002197FE010E94D30BC23DD107C9F70E949F
:1001F0002E090C94D90B0C940000FC0180919801FD
:10020000882311F13FB7F89482E08093E9002091B0
:10021000F200822F90E01816190614F481E090E0A5
:10022000882339F0289A44E6409397014091F100E1
:100230004083222339F02091F200211103C02BE6E4
:100240002093E8003FBF08958FEF9FEF08952FB7E9
:10025000F89483E08093E9009091E800892F807200
:1002600095FF04C09091F20080E4891B2FBF089590
:1002700080918F0181110DC082E080938B0184E019
:1002800080938C0110928E0110928D0181E08093F9
:100290008F018BE891E00895CF93DF931F92CDB744
:1002A000DEB76983DC01ED91FC910280F381E02DE2
:1002B00041E050E0BE016F5F7F4F09950F90DF91E5
:1002C000CF91089583E08093E9008091F200882324
:1002D00019F08AE38093E80008950E94270190E0D6
:1002E0000895CF93DF931F92CDB7DEB7FC018485CD
:1002F000958597FD08C02FEF3FEF358724870F9036
:10030000DF91CF910895CE0101960E94FD000197E3
:1003100019F4898190E0F3CF8FEF9FEFF0CF0F9327
:100320001F93CF93DF931F92CDB7DEB78C01FC01F3
:100330008485958597FF0BC0CE0101960E94FD0034
:10034000019771F4898190E0F80195878487F8011D
:10035000848595850F90DF91CF911F910F9108951E
:100360008FEF9FEFF1CFFC018485958597FD0BC042
:100370009FB7F89482E08093E9008091F2009FBFDC
:1003800090E0019608959FB7F89482E08093E90089
:100390008091F2009FBF90E00895409185015091B7
:1003A0008601209183013091840142175307B4F4F0
:1003B0009091E8009570E1F39091E80092FD19C0EA
:1003C0008093F100809185019091860101968F7351
:1003D0009927892B19F48EEF8093E800809185018D
:1003E000909186010196909386018093850181E02A
:1003F000089580E00895EF92FF920F931F93CF939B
:10040000DF93F82E192FE62E042F81E0860F880F38
:100410000E94CD0183E00E94CD01CF2DD12FEC0EA3
:10042000FD2EF11CCE15DF05B9F007FF13C0FE014C
:1004300084910E94CD01182F80E00E94CD0181237C
:1004400021968111EFCFDF91CF911F910F91FF90F6
:10045000EF9008958881EDCF81E0F5CFDF92EF92A4
:10046000FF920F931F93CF93DF93D82E8A01EB0156
:100470007B01E40EF51ECE15DF0559F0D7FE12C044
:10048000FE0184910E94CD0121968111F4CF0FEFDE
:100490001FEFC801DF91CF911F910F91FF90EF9057
:1004A000DF9008958881EECF0F931F93CF93DF9352
:1004B0001F92CDB7DEB782E0898342E450E061E36A
:1004C00071E080E80E942E020E943801DC01129641
:1004D0000D911C910115110589F0D801ED91FC9148
:1004E0000280F381E02DBE016F5F7F4FC801099547
:1004F00097FD04C0F80100851185ECCF89810F902C
:10050000DF91CF911F910F910895615030F02091AC
:10051000F100FC0120830196F8CF289A84E68093AD
:1005200097010895AF92BF92CF92DF92EF92FF9220
:100530000F931F93CF93DF936C017B018B01040F0B
:10054000151FEB015E01AE18BF08C017D10759F0A7
:100550006991D601ED91FC910190F081E02DC601E9
:100560000995892B79F7C501DF91CF911F910F91E3
:10057000FF90EF90DF90CF90BF90AF900895FC0177
:10058000538D448D252F30E0842F90E0821B930BF8
:10059000541710F0CF96089501970895FC01918D9E
:1005A000828D981761F0A28DAE0FBF2FB11D5D96A1
:1005B0008C91928D9F5F9F73928F90E008958FEF43
:1005C0009FEF0895FC01918D828D981731F0828DF7
:1005D000E80FF11D858D90E008958FEF9FEF08954E
:1005E000FC01918D228D892F90E0805C9F4F821BB2
:1005F00091098F739927089589EE91E00E94F00286
:1006000021E0892B09F420E0822F089580E090E01A
:10061000892B29F00E94FC0281110C94000008959E
:10062000FC01A48DA80FB92FB11DA35ABF4F2C9167
:10063000848D90E001968F739927848FA689B7895E
:100640002C93A089B1898C9182748C93938D848D25
:10065000981306C00288F389E02D80818F7D808306
:100660000895EF92FF920F931F93CF93DF93EC01C6
:1006700081E0888F9B8D8C8D981319C0E889F9894A
:10068000808185FF14C09FB7F894EE89FF8960834D
:10069000E889F9898081827480839FBF81E090E03E
:1006A000DF91CF911F910F91FF90EF900895F62E5B
:1006B0000B8D10E00F5F1F4F0F731127E02E8C8DF5
:1006C0008E110CC00FB607FCFACFE889F98980813A
:1006D00085FFF5CFCE010E941003F1CFEB8DEC0F1B
:1006E000FD2FF11DE35AFF4FF0829FB7F8940B8F57
:1006F000EA89FB8980818062CFCFCF93DF93EC01C1
:10070000888D8823B9F0AA89BB89E889F9898C91F9
:1007100085FD03C0808186FD0DC00FB607FCF7CFB5
:100720008C9185FFF2CF808185FFEDCFCE010E94B5
:100730001003E9CFDF91CF910895CF93DF9390E03D
:10074000FC01ED50FF4F24918C529F4FFC0184918E
:100750008823C9F090E0880F991FFC01E854FF4FEF
:10076000A591B491FC01EA53FF4FC591D491611159
:100770000DC09FB7F8948C91209582238C9388812B
:10078000282328839FBFDF91CF910895623051F4D1
:100790009FB7F8943C91822F809583238C93E881B6
:1007A0002E2BEFCF8FB7F894EC912E2B2C938FBF7D
:1007B000EACF823108F08251E82FF0E0E455FF4F94
:1007C000E49190917B008E2F880F880F80729F7D1F
:1007D000892B80937B00E770E064E0937C0080913C
:1007E0007A00806480937A0080917A0086FDFCCF45
:1007F000809178009091790008953FB7F8948091A6
:100800006B0190916C01A0916D01B0916E0126B5C4
:10081000A89B05C02F3F19F00196A11DB11D3FBF38
:10082000BA2FA92F982F8827BC01CD01620F711D07
:10083000811D911D42E0660F771F881F991F4A9501
:10084000D1F708958F929F92AF92BF92CF92DF928D
:10085000EF92FF924B015C010E94FD036B017C0152
:100860000E94FD036C197D098E099F09683E734043
:1008700081059105A8F321E0821A9108A108B10829
:1008800088EEC80E83E0D81EE11CF11C811491048F
:10089000A104B10429F7FF90EF90DF90CF90BF90B3
:1008A000AF909F908F9008958F929F92AF92BF923A
:1008B000CF92DF92EF92FF920F931F93CF93DF932C
:1008C0006C017B018A0180910B01882309F45CC0D3
:1008D00080919801882309F457C080918A0180FF94
:1008E00005C08091E00082608093E000E801B12CB7
:1008F0008AEFA82E93E0892E2AE3922E209711F4F6
:10090000BB20D9F10E94270181110AC0AA94AA2014
:10091000D9F161E070E080E090E00E942204EECF27
:100920008C171D0611F00CF08C2F9FB7F894809255
:10093000E9002091E80025FD02C09FBFDFCF282FEE
:1009400030E0C21BD30BF701815020F0419140935E
:10095000F100FACFE20EF31EBB2021F09092E800E6
:10096000B12CEBCF8091E80085FDE7CF9092E800B5
:10097000BB24B394209709F3F3CF5D9A84E6809368
:100980008901101611063CF081E090E0F601938396
:10099000828310E000E0C801DF91CF911F910F9199
:1009A000FF90EF90DF90CF90BF90AF909F908F908F
:1009B0000895FC0101900020E9F73197AF01481B31
:1009C000590BBC0189EE91E00C9492028F929F9298
:1009D000AF92BF920F931F93CF93DF93CDB7DEB744
:1009E000A1970FB6F894DEBF0FBECDBF19A242305B
:1009F00008F44AE08E010F5D1F4F842E912CB12C1C
:100A0000A12CA50194010E94B10BE62FB901CA01E6
:100A1000EA30F4F4E05DD801EE938D01232B242B12
:100A2000252B79F790E080E0109719F0CD010E9416
:100A3000D904A1960FB6F894DEBF0FBECDBFDF91EB
:100A4000CF911F910F91BF90AF909F908F9008957D
:100A5000E95CE1CFCF93DF930E94D904EC0185E5F7
:100A600091E00E94D9048C0F9D1FDF91CF910895D2
:100A70001F920F920FB60F9211248F939F93809124
:100A8000E1009091E100937F9093E10083FF0FC01C
:100A90001092E90091E09093EB001092EC0092E349
:100AA0009093ED001092980198E09093F00082FFEF
:100AB00022C093E09093E9009091F200992319F0FD
:100AC0009AE39093E80090918901992341F09091E5
:100AD0008901915090938901911101C05D98909185
:100AE0009701992341F0909197019150909397012C
:100AF000911101C0289884FF18C08091E2008E7E79
:100B000081608093E2008091E1008F7E8093E1001C
:100B100080918A018E7E806180938A019F918F915E
:100B20000F900FBE0F901F90189580FFF7CF809108
:100B3000E2008E7E80618093E2008091E1008E7EF3
:100B40008093E10080918A018E7E8160E5CF1F92C3
:100B50000F920FB60F921124CF92DF92EF92FF9275
:100B60000F931F932F933F934F935F936F937F93B5
:100B70008F939F93AF93BF93EF93FF93CF93DF93A5
:100B8000CDB7DEB76C97DEBFCDBF1092E900809184
:100B9000E80083FF25C068E0CE0145960E948502EB
:100BA00082EF8093E8008D8987FF39C09091E8003B
:100BB00090FFFCCF982F907609F034C19E894F8921
:100BC000588D2F89F88C911131C0803861F5809152
:100BD00088018093F1001092F1008EEF8093E8007D
:100BE0006C960FB6F894DEBF0FBECDBFDF91CF91EC
:100BF000FF91EF91BF91AF919F918F917F916F91F5
:100C00005F914F913F912F911F910F91FF90EF9026
:100C1000DF90CF900F900FBE0F901F9018959EEF12
:100C20009093E800C7CF1092F100D5CF913059F4DE
:100C30008111D3CF4130510581F6809188018D7F9C
:100C400080938801CACF933049F48111C6CF4130D7
:100C5000510519F6809188018260F2CF953041F4F8
:100C60008091E80080FFFCCF20682093E300B5CF9F
:100C7000963009F0A9C00B8D1C8D22E01092E9007E
:100C80001092860110928501F2122EC010928401FA
:100C9000109283010E9454021F8299E09983FA8284
:100CA00091E09E8390EA98879AEF99872091850139
:100CB00030918601275F3F4F3C832B838D831092B9
:100CC000E90010928601109285011093840100932F
:100CD000830149E050E0BE016F5F7F4F80E00E94DA
:100CE0002E020E94540279CF109384010093830155
:100CF0000E943801DC0112960D911C91011511051D
:100D000009F451C1D801ED91FC910480F581E02DE9
:100D1000BE016B5E7F4FC8010995009709F03EC187
:100D2000F80100851185EACFF3E0FF120EC08F892C
:100D3000882309F440C0823061F440E86DE085E921
:100D400091E00E94FB01811148CF81E28093EB008A
:100D500047CF813029F440E86BE089E891E0F1CF9A
:100D6000833099F70E943801DC011296ED90FC90D7
:100D70008E010F5F1F4F6801E114F10479F0D70174
:100D8000ED91FC910680F781E02DB801C70109952E
:100D9000080F111DF701E084F184EECFD8011C92F9
:100DA000F60101900020E9F73197BF016C197D0928
:100DB00040E0C601C6CF63E771E0FB01449150E01B
:100DC00080E80E942E0209CF973009F4BECF9830F8
:100DD00021F481E08093F10000CF993009F0FDCE3D
:100DE000837009F0B2CFEBE2F1E081E031E096E30D
:100DF0002191222371F08093E9003093EB00DF0111
:100E000011972C912093EC009093ED008F5F873029
:100E100079F78EE78093EA001092EA008F89809339
:100E20009801DBCE8B8D9C8D1092E900109286018B
:100E3000109285019093840180938301898D8111A3
:100E400092C08E899D89913A49F4813209F07DCF13
:100E500047E050E064E071E080E0B3CF913209F008
:100E600074CF833269F48F89988DB0E0A0E08093CD
:100E7000000190930101A0930201B0930301ADCE54
:100E8000803269F48091E80082FFFCCF67E084E063
:100E900091E00E9485028BEF8093E8009ECE823223
:100EA00009F09BCE8F8980930B01EEEFFFE78591D0
:100EB00094918B3F9C4D51F1E0E0F8E0809104016A
:100EC00090910501A0910601B0910701803B9440EB
:100ED000A105B105F1F480910B0180FD1AC0EE3F30
:100EE0008AE0F80789F587E797E791838083809107
:100EF00060008093870188E19BE00FB6F894A89585
:100F0000809360000FBE9093600067CEEEEFFAE032
:100F1000D5CF808191818737974709F05ECEA8951C
:100F20008091600088618093600080918701809348
:100F30006000EE3F2AE0F20789F08091FE0A90916E
:100F4000FF0A9183808349CE8081918187379807FA
:100F500051F29093FF0A8093FE0AC5CF1092FF0AC8
:100F60001092FE0A3ACE0E943801DC0112960D91D1
:100F70001C910115110509F4E8CED801ED91FC9101
:100F80000190F081E02DBE016B5E7F4FC801099595
:100F9000811123CEF80100851185EBCF18161906B3
:100FA0000CF41BCED2CEF1E0FF12BECE67E771E0AB
:100FB00004CF1F920F920FB60F9211242F933F93DD
:100FC0004F935F936F937F938F939F93AF93BF9351
:100FD000EF93FF9389EE91E00E941003FF91EF9150
:100FE000BF91AF919F918F917F916F915F914F9141
:100FF0003F912F910F900FBE0F901F9018951F9249
:101000000F920FB60F9211242F938F939F93EF930C
:10101000FF93E091F901F091FA018081E091FF01E5
:10102000F091000282FD1BC09081809102028F5FCF
:101030008F7320910302821741F0E0910202F0E0E9
:10104000E751FE4F958F80930202FF91EF919F91A0
:101050008F912F910F900FBE0F901F901895808148
:10106000F4CF1F920F920FB60F9211242F933F933C
:101070008F939F93AF93BF9380916F019091700175
:10108000A0917101B091720130916A0123E0230FA8
:101090002D3758F50196A11DB11D20936A0180934B
:1010A0006F0190937001A0937101B09372018091D0
:1010B0006B0190916C01A0916D01B0916E01019650
:1010C000A11DB11D80936B0190936C01A0936D01E4
:1010D000B0936E01BF91AF919F918F913F912F91EE
:1010E0000F900FBE0F901F90189526E8230F0296C1
:1010F000A11DB11DD2CF10929C0110929B0188EED0
:1011000093E0A0E0B0E080939D0190939E01A093B6
:101110009F01B093A00125E331E030939A01209321
:1011200099012FEF3FEF3093A6012093A501109274
:10113000EC011092EB018093ED019093EE01A093EE
:10114000EF01B093F00187E491E09093EA0180937E
:10115000E9018DEC90E09093F6018093F5018CEC21
:1011600090E09093F8018093F70188EC90E09093E1
:10117000FA018093F90189EC90E09093FC0180934F
:10118000FB018AEC90E09093FE018093FD018EECD0
:1011900090E0909300028093FF011092020210925F
:1011A0000302109204021092050287E18093AC02C0
:1011B00088E08093AD0281E08093AE0260E087E139
:1011C0000E949D0361E084E00E949D0361E085E050
:1011D0000E949D0361E086E00E949D038091AD0224
:1011E000893020F061E087E00E949D034091AC02CD
:1011F0003091AD0240938B0230938D0210928C029D
:1012000090E390938E0210929802109296021092A0
:10121000950222E020939702109286029093870213
:1012200081E0809388021092890240939E0230935D
:10123000A00280939F029093A1021092AB021092A1
:10124000A9021092A8022093AA02109299029093E8
:101250009A0280939B0280939C020895789484B5AF
:10126000826084BD84B5816084BD85B5826085BDA2
:1012700085B5816085BD80916E00816080936E0030
:101280001092810080918100826080938100809122
:1012900081008160809381008091800081608093D3
:1012A00080008091910082608093910080919100F4
:1012B0008160809391008091900081608093900084
:1012C0008091C10084608093C1008091C1008260E0
:1012D0008093C1008091C10081608093C1008091A2
:1012E000C30081608093C3008091C00082608093BE
:1012F000C0008091C20081608093C20080917A001A
:10130000846080937A0080917A00826080937A0072
:1013100080917A00816080937A0080917A00806861
:1013200080937A00109298011092880110928A019D
:101330008091D70081608093D70080EA8093D800A5
:1013400089B5806189BD89B5826089BD09B400FE17
:10135000FDCF61E070E080E090E00E942204809187
:10136000D8008F7C80618093D8008091E000807FDE
:101370008093E0008091E1008E7E8093E1008DE01B
:101380008093E200559A209A5D982898E091F9019F
:10139000F091FA0182E08083E091F501F091F6018D
:1013A0001082E091F701F091F8018FEC80831092A8
:1013B0000102E091FD01F091FE0186E08083E09161
:1013C000FB01F091FC01808180618083E091FB0151
:1013D000F091FC01808188608083E091FB01F091B5
:1013E000FC01808180688083E091FB01F091FC0129
:1013F00080818F7D808361E08BE00E949D0361E0AE
:1014000084E00E949D0361E085E00E949D0361E00D
:1014100086E00E949D0360E0C62E60E0D62E53E772
:10142000E52E51E0F52E02E111E0E701ACE0B1E07C
:1014300090E080E04D915D915527FA01EE5EFE4F00
:101440002491FA01ED50FF4F34914C525F4FFA0155
:101450004491442309F435C0F801E80FF91F508185
:101460002223E9F021502F30D0F4E22FF0E0E55CA8
:10147000F54F0C94D30B360B3A0B4A0A2E0B320B5A
:101480004F0A4F0A4F0A3D0B430B470B4B0B510BB7
:101490004F0A550B209180002F7720938000E42F76
:1014A000F0E0EE0FFF1FEA53FF4F659174912FB7E5
:1014B000F894FB0140815111FEC0309534233083F4
:1014C0002FBF01968330910509F0B4CF87E10E94C8
:1014D000D903899399930D5F1F4FF1E0C338DF075C
:1014E00009F0A4CF412C512C320188E591E00E94F3
:1014F000D9044AE0C301B2010E94E6048EE591E0FE
:101500000E94D904F701819091907F01092C000C71
:10151000AA08BB084AE0C501B401B7FE0DC06DE2E0
:1015200089EE91E00E94310366277727CB01681985
:1015300079098A099B094AE00E94E60485E591E061
:101540000E94D904FFEF4F1A5F0A6F0A7F0A88E0F2
:10155000481651046104710441F687E591E00E9448
:101560002A0564EF71E080E090E00E942204C6E862
:10157000D2E010E000E08E81880F880F9F819930C3
:1015800008F49EC09BB1937C9BB99BB1892B8BB90E
:101590008B8181112DC08D810E94D9039A87898703
:1015A0002B853C85281B390B295F3F4FFF24FA947C
:1015B0002F30310550F09C01287F3C872B8723E09A
:1015C000959587952A95E1F7F82E82E691E00E949D
:1015D0002A056F2D70E090E080E04AE00E94E6046A
:1015E00085E591E00E94D90480E691E00E942A05F9
:1015F000FB80E1E0FE1222C0F801EE0FFF1FED5864
:10160000FE4F808191819A878987181619060CF4FC
:101610005AC0FF24FA9486E691E00E942A056F2DB5
:1016200070E090E080E04AE00E94E60485E591E009
:101630000E94D90480E691E00E942A056396013059
:101640001105D9F5C114D10409F4E9CE0E94FC02B8
:10165000882309F4E4CE0E940000E1CE20918000AE
:101660002F7D1BCF20918000277F17CF24B52F77A8
:1016700024BD15CF24B52F7DFBCF209190002F776F
:10168000209390000CCF209190002F7DF9CF2091D6
:101690009000277FF5CF2091C0002F772093C000C6
:1016A000FECE2091C0002F7DF9CF2091C200277F70
:1016B0002093C200F4CE342B02CF01E010E05BCFC8
:1016C0009BB1937E61CF4A8950E070E060E02FB714
:1016D000F89480916F0190917001A0917101B09187
:1016E00072012FBF8F849888092C000CAA08BB08B0
:1016F00088199909AA09BB09481759076A077B077E
:1017000020F08989823009F084CF2FB7F894809136
:101710006F0190917001A0917101B09172012FBF82
:101720008A8B8FB7F89440916F015091700160914E
:101730007101709172018FBF8F859889092E000CFD
:10174000AA0BBB0B481B590B6A0B7B0B8417950725
:10175000A607B70708F05FCF89898D7F8160898BE5
:101760005ACFA1E21A2EAA1BBB1BFD010DC0AA1F56
:10177000BB1FEE1FFF1FA217B307E407F50720F0FA
:10178000A21BB30BE40BF50B661F771F881F991F75
:101790001A9469F760957095809590959B01AC01BE
:1017A000BD01CF010895EE0FFF1F0590F491E02DCC
:0617B0000994F894FFCF3C
:1017B600FFFFFFFF00E1000000000000060005003B
:1017C600040000000000000100010000010101000A
:1017D6000001000101010001010100C1808100003A
:1017E60000000000004C0154046D016201B3017158
:1017F600018F010000000031039202BF027D03F059
:1018060002CE02E2020D0A0050696E6F2000203DF2
:0A181600200074793000747931006D
:00000001FF
